:10100000000004203919000061190000014C0000A3
:101010006519000067190000691900000000000050
:101020000000000000000000000000006B1900003C
:101030006D190000000000006F1900007119000018
:101040003D5B0000ADA200004D5B0000117D000083
:10105000917D000073190000BD5400007319000059
:101060007319000073190000731900007319000050
:101070007319000073190000731900007319000040
:10108000731900002519000073190000731900007E
:101090007319000073190000731900007319000020
:1010A0007319000073190000818600000D8700008D
:1010B0007319000073190000000000000000000018
:1010C00073190000731900007319000073190000F0
:1010D0007319000073190000731900001D6C0000E3
:1010E000731900007319000073190000000000005C
:1010F00000000000731900000000000073190000D8
:1011000000000000000000000000000000000000DF
:1011100000000000000000000000000000000000CF
:1011200000000000000000000000000000000000BF
:1011300000000000000000000000000000000000AF
:10114000000000000000000000000000000000009F
:10115000000000000000000000000000000000008F
:10116000000000000000000000000000000000007F
:10117000000000000000000000000000000000006F
:10118000000000000000000000000000000000005F
:10119000000000000000000000000000000000004F
:1011A000000000000000000000000000000000003F
:1011B000000000000000000000000000000000002F
:1011C000000000000000000000000000000000001F
:1011D000000000000000000000000000000000000F
:1011E00000000000000000000000000000000000FF
:1011F00000000000000000000000000000000000EF
:101200000348044B834202D0034B03B11847704795
:101210001001002010010020000000000548064BCE
:101220001B1AD90F01EBA301491002D0034B03B1E4
:101230001847704710010020100100200000000036
:1012400010B5064C237843B9FFF7DAFF044B13B10E
:101250000448AFF300800123237010BDD0010020AB
:101260000000000060B4010008B5044B1BB1044944
:101270000448AFF30080BDE80840CFE7000000005D
:10128000D401002060B40100A3F5803A704700BF8C
:10129000154B002B08BF114B9D46FFF7F5FF0021B2
:1012A0008B460F461148124A121A14F0C5FE0C4B19
:1012B000002B00D098470B4B002B00D09847002004
:1012C000002104000D000B4814F037FE14F072FEEC
:1012D0002000290014F014F914F044FE0000080066
:1012E000000000000000000000000420D0010020E9
:1012F000400F00208D5F010030B48D688468C268A3
:10130000CB68A54293412CBF0120002030BC704720
:1013100038B52E4B1D7815B90025284638BD044632
:101320000028F9D02A4800F0F9FA2A4B1A685B68BD
:101330008018294AD2E9001243F10003884273EB76
:10134000020203D210F1807043F10003D4E90212CB
:10135000884293410AD2B2F1FF3F08BFB1F1FF3F8B
:10136000DAD01E48214603F0F7FED6E7002003F04E
:1013700035FC23692BB94FF0FF324FF0FF33C4E93E
:101380000223002003F032FCD4E905309847002006
:1013900003F024FC2369A3B1D4E90212B2F1FF3FA8
:1013A00008BFB1F1FF3F0CD05B1842F10002C4E965
:1013B0000232002003F01AFC0848214603F0CCFE5C
:1013C000ABE7002003F012FCA6E700BF58020020A4
:1013D000200000205002002048020020E08501008B
:1013E0002DE9F04F83B0814600F06CFA40B17C4AA1
:1013F000D2E9003113F1807341F10001C2E90031FB
:101400000021484600F07AFA764D30B12B6823B1BE
:101410002868FFF77DFF00232B600121484600F07C
:101420006DFA002840F0C4806F4801A903F01EFD4A
:1014300000283AD06C4C4FF0FF3A4FF0FF3B09E0E8
:1014400033B301A9204603F043FD01A9204603F070
:101450000DFD50B30378012B11D0022BF0D1634E58
:10146000304603F08DFE30B1C0E902AB304603F0E8
:1014700087FE0028F8D15E4B01221A70E1E72B6845
:101480004168994200F09180584803F083FED8E704
:101490004168D1E90223B3F1FF3F08BFB2F1FF3F3A
:1014A000CFD0524803F058FECBE7504E514FDFF8F3
:1014B0003081304603F06AFE002853D0D0E9022381
:1014C000B3F1FF3F08BFB2F1FF3F6AD0296891B185
:1014D0002968D1E9020182428B4159D22B68D3E9B4
:1014E0000223B3F1FF3F08BFB2F1FF3F03D02968E9
:1014F000304603F031FE304603F042FE04463846E3
:10150000D4E902AB00F00AFA3B4BD8F80410D3E957
:1015100000E2D8F80030C31841F10001734571EBC7
:10152000020C03D213F1807341F10001BAEB030303
:101530006BEB010B012B7BF1000B1BDBB3F5350FC4
:1015400029D252464FF496030021384600F030F974
:10155000C0B10D2812D0002330462B6003F016FED8
:101560000028ABD12B689BB9484603B0BDE8F04FCB
:1015700000F0F0B80021384600F0B4F92046FFF73B
:10158000C7FEE8E72B6813B9484600F0DFF82C6087
:1015900003B0BDE8F08F384600F0C0F9174A0244A6
:1015A000D0E7304603F0ECFD83E700232B6048E7EB
:1015B000104800F0B3F90A4B1A685B6880180E4AAD
:1015C000D2E9004143F10003A04273EB010103D2D1
:1015D00010F1807043F10003C2E9000324E700BF6B
:1015E000500200205C0200200C000020E085010079
:1015F000580200202000002048020020FFFFB40015
:1016000010B5134B13491C68134882B008235822A5
:10161000019403F0D1FB044610B1204602B010BD86
:101620000E4A0F4801A900F021F804460028F4D121
:101630000B48012100F03CF901231946094A0848EA
:1016400000F08CF8084B012220461A7002B010BD41
:101650000C860100F00100200C000020E1130000C6
:1016600020000020FFFF7F005802002010B52E4C04
:10167000437944F823202D4C04EBC3031B79002B42
:1016800040D103680A88C3F8082590F904308A78A5
:10169000002B24DB03F16043520103F56143D2B216
:1016A00083F8002390F90430002B09DB20494FEA2E
:1016B000531C012203F01F0302FA03F341F82C30FC
:1016C00043791C4A44F8330004EBC30153884FF0BC
:1016D000010C022B81F804C009D8002010BD164966
:1016E00003F00F0352011944D2B20A76DAE7134B22
:1016F00013481449C01AC008000440F0030000F069
:101700003BFCEAE70B4B5B88012B01D8082010BD9E
:101710000A4B0B480C49C01AC008000440F00200F4
:1017200000F02AFCF2E700BF6802002060020020FF
:1017300000E100E034010020FCEC00E064B40100B2
:10174000ACB4010034860100108601000368012258
:101750001A607047036801225A60704770B40568C8
:101760004FF480348C40C5F80843056801F1500CF3
:10177000C5F848434FEA8C0C05681FFA8CFC00261C
:1017800045F80C6083B055F80C500195019D056833
:1017900001F5A87122F07F4245F821200268C2F8C5
:1017A000444313B10368C3F8044303B070BC7047EB
:1017B0002DE9F0474FF48037994603688F40C3F80E
:1017C00048730368C3F80873036801F150060D46B7
:1017D00003EB810122F07F48D3F80435D1F840258E
:1017E000C1F84035B600B6B2D21A03684FF0000A0D
:1017F00043F806A082B09B59009322F07F42012A51
:10180000009B044645D02368D3F80465C3F84473AD
:10181000A8EB060323F07F43012B05F5A87527D01D
:10182000226842F825802168D1F80405A8EB00025F
:10183000C9F1FF13013A03F57F4322F07F4293423F
:1018400012D342B1C1F8447323680020C3F8047373
:1018500002B0BDE8F08708F1010341F825302168A6
:10186000D1F804359842EDD00D2002B0BDE8F087E4
:10187000236808F1010243F825200C4B4FF48060E7
:1018800043F0010398472168D1F804359E42D9D02E
:10189000EAE7064B4FF4806043F001039847236862
:1018A00043F806A09B590193019BACE750860100C9
:1018B00002680223C2F8443311B10268C2F804334B
:1018C000704700BF0368D3F8040100B970470022D5
:1018D00082B0C3F80421D3F804310193019B0120A5
:1018E00002B0704702684FF4803303FA01F1C2F886
:1018F00048130368C3F80813704700BF50318900CC
:10190000036889B2585800B9704700225A5082B013
:101910005B580193019B012002B070470368D3F824
:1019200004057047024A034B10681B68184700BF44
:1019300060020020680200200649074A074B9B1AF4
:1019400003DD043BC858D050FBDC06F09DFAFFF7DE
:101950009FFC000030BD010008000020D0010020E5
:10196000FEE7FEE7FEE7FEE7FEE7FEE7FEE7FEE74F
:10197000FEE7FEE770B5344C84B004F5836003F0F5
:10198000E7FA04F2144003F0E3FAA368DAB2D11CD8
:1019900004EB810014F821104D0723D403F1020C4D
:1019A00004EB82020133D1680191DBB204EB8303C3
:1019B00001F00302012ADE6865463ED0022A0FD1FB
:1019C000BDF80630C3F389130333360C0CEB9305D3
:1019D0001E4803F0C9FA00B1A560304604B070BDDE
:1019E0000026F5E701F00405017801F00301012963
:1019F00003F1020C0CD0022902F103010DD004EB1B
:101A00008100002DCCD0017801F003010129F2D131
:101A10000388C3F38313634402E043880CEB9313FE
:101A2000DAB2D11C04EB810014F8211001F0040596
:101A300003F1020C002DE6D1B2E7BDF80430C3F388
:101A40008313360C1D44C3E76C020020800600207F
:101A5000704700BF2DE9F047954CD4E901239A4225
:101A600084B061D00023C4F81834BFF34F8FA56849
:101A7000EAB2D31C04EB830014F82330590718D5BD
:101A80006668037803F00303012B46D0022B03D1D1
:101A90004388023505EB9315EAB2D4F81814D31C29
:101AA00004EB830029B9AE423DD914F823305B071B
:101AB000E7D404EB82026B1CDBB2D26804EB830335
:101AC00002F00301DB680229CDE9012305F10206DA
:101AD0002ED0012900F0A280D4F810543DB12B681B
:101AE00028469B689847EB681D68002DF7D1714B1D
:101AF0005B88012B09D97048704B7149C01AC00826
:101B0000000440F0020000F037FAD4E90130C01AB6
:101B100018BF012004B0BDE8F08703880235C3F385
:101B200083131D44B8E7A660002004B0BDE8F08729
:101B3000BDF8063063489DF80470C3F389194D461B
:101B4000502D28BF502565F38F1305F10801ADF81E
:101B5000063003F051FAC7F3C20780460028BBD015
:101B600003F096FA002301A90822404603F0C0FAC8
:101B7000F343DBB20133F1B20331B5EB830F04EB76
:101B800081014FEA830A40F28880A5EB0A0552469C
:101B900040460823EDB203F0ABFA4B490AF10803C3
:101BA0002A46404603F0A4FA09F1030906EB990618
:101BB000D4F81834D4F81054002B74D105B3DFF8DE
:101BC0000CA14FF00709EB685A79B2B1BDF80820B3
:101BD00019795AF8220001EB410109FA01F2052FA7
:101BE00002EA000208BF0327CA40974205D82B68C3
:101BF00028461B6841469847EB681D68002DE2D1D6
:101C0000404603F049FA002002F0E8FFD4F8183407
:101C100003B9A660002002F0E9FF76E7BDF8047082
:101C20002848C7F38313062B28BF062363F38917BD
:101C3000023303F00F018900ADF8047003F0DCF902
:101C4000C7F3C207804600283FF446AF03F020FAEE
:101C50000023082201A9404603F04AFABDF80430E7
:101C600013F4707FA4D06FF00109A9EB05090825D2
:101C7000F1B203312B46042204EB8101404603F00C
:101C800037FABDF804300136C3F3831309EB0602BB
:101C9000934205F10405EBD88AE72A46082340461B
:101CA00003F026FA80E7404603F0F6F92DE700BF7F
:101CB0006C02002030010020A4B4010064B40100D3
:101CC0005886010024B50100780200207001002030
:101CD0002DE9F047DFF8ECA00546002098460F46B6
:101CE000914602F07BFFDAF80830DAF8046003F579
:101CF00080739B1B052B61D80AF21C4401212046EE
:101D000003F000F9FFF736FE0146204603F0FAF82B
:101D1000DAE9012303F580739B1A052BEED9D3B2C0
:101D2000033340F205114AF8231006320020CAF8A6
:101D3000042002F05BFFB31CDBB20AEB8303089ABA
:101D4000C3F80C90F31CDBB20AEB83031C48C3F806
:101D50000C80331DDBB20AEB83030021DA60731DB4
:101D6000DBB20AEB8303099ADA6003F0C1F880F36F
:101D700010031B0443EA1543ED00721C05F03805FF
:101D800045F48075D2B2F6B245F001050AEB820245
:101D9000033645EA8725D3604AF826509AF8003082
:101DA0001BB9FFF755FEBDE8F087FFF753FE00288B
:101DB000F7D0FFF74FFE0028F7D1F2E73246AEE743
:101DC000880600206C0200202DE9F047DFF8DCA037
:101DD0000546002098460F46914602F0FFFEDAF8CD
:101DE0000830DAF8046003F580739B1B042B58D885
:101DF0000AF21C440121204603F084F8FFF7BAFDE3
:101E00000146204603F07EF8DAE9012303F58073EA
:101E10009B1A042BEED9D3B20333C5214AF8231001
:101E200005320020CAF8042002F0E0FEB31CDBB249
:101E30000AEB8303089AC3F80C90F31CDBB20AEB9D
:101E400083030021C3F80C80331DDBB20AEB83034C
:101E50001548DA6003F04CF880F31002711CEB00B7
:101E600003F03803C9B2F6B2120443F0C1030AEB1F
:101E70008101033643EA872342EA1542CA604AF8E1
:101E800026309AF800301BB9FFF7E2FDBDE8F08775
:101E9000FFF7E0FD0028F7D0FFF7DCFD0028F7D1C1
:101EA000F2E73246B7E700BF880600206C02002048
:101EB0002DE9F843DFF8BC90054600200F46904618
:101EC00002F08CFED9E9016303F580739B1B022BA2
:101ED0004CD809F21C440121204603F013F8FFF707
:101EE00049FD0146204603F00DF8D9E9012303F529
:101EF00080739B1A022BEED9D3B20333452149F8E4
:101F0000231003320020C9F8042002F06FFEB31C36
:101F1000DBB209EB830300211548C3F80C8002F003
:101F2000E7FF80F31002711CEB0003F03803C9B225
:101F3000F6B2120443F0410309EB8101033643EA90
:101F4000872342EA1542CA6049F8263099F80030E2
:101F50001BB9FFF77DFDBDE8F883FFF77BFD002887
:101F6000F7D0FFF777FD0028F7D1F2E73246C3E755
:101F7000880600206C0200202DE9F041294C06461D
:101F80000020884602F02AFED4E9017303F580732D
:101F9000DB1B012B44D804F21C450121284602F02A
:101FA000B1FFFFF7E7FC0146284602F0ABFFD4E99A
:101FB000012303F580739B1A012BEED9D3B20333AF
:101FC000052144F8231002320020626002F00EFE68
:101FD0000021154802F08CFF80F31002791CF300F9
:101FE00003F03803C9B2FFB2120443F0010304EB5B
:101FF0008101033743EA882342EA1642CA6044F863
:10200000273023781BB9FFF723FDBDE8F081FFF7E8
:1020100021FD0028F7D0FFF71DFD0028F7D1F2E7DA
:102020003A46CBE76C0200208806002038B5084B02
:10203000D3F8104401251D704CB1E3685D7123682D
:1020400020465B689847E3681C68002CF5D138BDD2
:102050006C020020064B1A5C1F2A86BF054902F05D
:102060001F024FF0A04101239340C1F80C35704787
:102070009086010000030050064B1A5C1F2A86BFA1
:10208000054902F01F024FF0A04101239340C1F81F
:102090000835704790860100000300500A4B185C19
:1020A0001F288ABF09494FF0A04100F01F00D1F856
:1020B00004350122824022EA03001340C1F80805DA
:1020C000C1F80C35704700BF908601000003005036
:1020D000C30706D4830742BF2F4B0C22C3F818272F
:1020E000704710B44FF08043D3F84036D90723D45B
:1020F0004FF0A043284903224024C3F81827C3F80F
:102100002027C1F82427C3F83027C3F808454FF427
:1021100000724FF48074C3F80845C1F808254FF4E5
:102120008052C3F80825820703D51B4B0C22C3F845
:1021300018275DF8044B70474FF01023D3F8043391
:1021400003F00703072BD3D1144A0123C2F8043547
:10215000D2F80034002BFBD04FF010210020D1F832
:1021600004330E4C23F0070343F00403C1F8043397
:10217000C2F80405D4F80034002BFBD0BFF34F8F16
:102180000749084BCA6802F4E0621343CB60BFF30F
:102190004F8F00BFFDE700BF0003005000E001408B
:1021A00000ED00E00400FA0500B585B0034600210B
:1021B00001AA44F20100CDE90111039300F004F8F3
:1021C00005B05DF804FB00BF70B572B6FFF72EFFD7
:1021D000FFF740FC0028FBD1194D6B88FBB9194B68
:1021E000D3F8F030DB070DD5174C184E00BE6B88C6
:1021F000012B07D9A01BC0080004154940F00200BC
:10220000FFF7BAFEBFF34F8F0E49124BCA6802F4B4
:10221000E0621343CB60BFF34F8F00BFFDE70A4C72
:102220000A4E0D49A01BC008000440F00100FFF752
:10223000A3FE044BD3F8F030DA07D8D5D6E700BFB9
:102240003001002000ED00E0A4B4010064B40100FE
:10225000A08601000400FA059486010030B583B021
:10226000124801A902F0C0FDF0B1114D04462868E2
:102270002060002002F0B2FC0E4B0F481B88026861
:1022800001339B1AE380002102F032FEA08000207F
:1022900002F0ACFC01A9054802F0D8FD074B1B6811
:1022A00001460BB12846984703B030BD30000020EE
:1022B000B0860100140800201808002068070020DC
:1022C00030B50378052B83B0054625D0002B2AD1E5
:1022D0002B4B1C683CB1236868889B68984723682F
:1022E0005C68002CF7D1274C002002F077FC2368B3
:1022F00013B9254B6A881A800121224802F002FE98
:10230000002002F073FC214B1B6813B10121284609
:102310009847236803B030BD1D4BD3F88424D3F80D
:102320008034DBB233B31B4801A902F05DFD0446E3
:102330000028EFD02B682360002002F04FFC124BE6
:1023400010481B88026801339B1AE380002102F0C9
:10235000CFFDA080002002F049FC01A90D4802F049
:1023600075FD0A4B1B680146002BD3D028469847C1
:1023700003B030BD084BD2B2052A08BF1D46D2E7D4
:1023800078070020180800201408002068070020A3
:102390000070024030000020D886010070B501288E
:1023A00082B006D0022804462AD0002831D002B0DC
:1023B00070BD2B4801A902F017FD04460028F6D095
:1023C000284D28682060002002F008FC264B274892
:1023D0001B88026801339B1AE380002102F088FD0C
:1023E000A080002002F002FC01A91D4802F02EFD91
:1023F0001F4B1B680146002BD9D028469847D6E7CB
:10240000174801A902F0F0FC04460028CFD0194D6E
:10241000D7E7134801A902F0E7FC05460028C6D01B
:10242000154E30682860204602F0D8FB0E4B0F484E
:102430001B88026801339B1AEB80214602F058FD8D
:10244000A880204602F0D2FB01A9054802F0FEFC5C
:10245000074B1B680146002BA9D030469847A6E7DA
:1024600030000020CC86010014080020180800204D
:1024700068070020C8860100D08601002DE9F04FD2
:1024800089B0002504460E4601929846049500E066
:10249000013562680123D2F804902146002204A885
:1024A000C8470028F4D18DF80E00069085B3814608
:1024B00082460BE09DF80E306768023BD7F804B007
:1024C000D8479DF80E309A44554521D960680123BC
:1024D000D0F804B00DF10E02214606A8D847606876
:1024E0000123D0F804B00DF10F02214606A8D84709
:1024F0009DF80F30B3424FF00002214606A8D9D113
:10250000019B4B4508D009F101095FFA89F9D1E730
:10251000052009B0BDE8F08F129A9DF80E301360C7
:1025200088F8003088F801606268023B556808F15D
:102530000202A847002009B0BDE8F08FF0B5394984
:1025400083B00546082338484FF4847202F034FC07
:10255000002856D1354804F0BDFB044610B1204692
:1025600003B0F0BD3249334A334B08701060014666
:1025700048221860314813F05FFD31484822214657
:1025800013F05AFD002D45D095E807002D4B83E848
:102590000700002002F0CCFE002836D12A4C237A16
:1025A00065680BB304F1090C4FF0030E244E234F62
:1025B0001EFB03CE9CF8010090B19CF80220104451
:1025C0006044624412F8011B01F00F03DB000906AE
:1025D0004CBFDB199B1990421C6029685960F1D1EE
:1025E0000CF1030CE645E5D10B222B6816488DF85B
:1025F000042001A9984704460028B0D004F000FC4C
:10260000ADE70324204603B0F0BD8528C6D0FFF710
:10261000CBFDC3E70B4B00200021C3E900011D7275
:10262000B7E700BF1C08002030000020C1220000D6
:1026300075070020800700207C070020CC070020C1
:1026400084070020680700203087010008B504F0E7
:1026500023FF40B104F028FF28B9054802F07CFEB2
:1026600018B9002008BD082008BDFFF79DFDF8E758
:10267000D486010004F0CEBB04F000BD4FF08043CF
:1026800003E0D3F83824D1072BD5D3F838249207A8
:10269000F7D530B583B0134801A902F0A5FB044675
:1026A000E8B1114D28682060002002F097FA0F4B26
:1026B0000F481B88026801339B1AE380002102F057
:1026C00017FCA080002002F091FA01A9054802F051
:1026D000BDFB084B1B6801460BB12846984703B069
:1026E00030BD704730000020C4860100140800206F
:1026F000180800206807002010B582B08223134814
:102700008DF8003001A902F06FFBE8B10446009893
:102710002060002002F062FA0D4B0E481B88026810
:1027200001339B1AE380002102F0E2FBA08000202D
:1027300002F05CFA01A9054802F088FB064B1B6811
:1027400001460BB16846984702B010BD300000202A
:102750001408002018080020680700202DE9F04127
:10276000077A82B0002F4BD000F1090E4FF003081A
:102770002C4D2D4E714618FB07E84C780022A242E2
:1027800001EB020315D091F802C013F80CC00CF055
:102790000F031CF0800F4FEAC30308D12B441B68C2
:1027A0000132002BEBD0112002B0BDE8F0813344A0
:1027B000F5E703318845E0D100251A4EDFF868C0FF
:1027C0002A4602EB420272445378ABB100210B4619
:1027D0009478134401311C5D04F00F03DB002406E0
:1027E0004CBF63449B191860446824685C6054784B
:1027F000CBB29C42ECD8077A0135EAB2BA42E0D3B8
:102800000A4A13681BB11A681368002BFBD11060C9
:1028100043680B221B688DF8042001A9984702B079
:10282000BDE8F08184070020CC070020800700204D
:10283000024B1878003818BF012070477407002039
:10284000030710B5044604D52046BDE8104004F047
:1028500091BF05F003FA204605F0A6F92046BDE831
:10286000104004F087BF00BF04F0F0BF014B1868B0
:10287000704700BF8007002010B50D4B86461868D2
:1028800078B1047A74B10346002202E00132A24218
:1028900008D093F809C0F44503F10303F6D101B160
:1028A0000A7010BD036818680028EAD110BD00BF87
:1028B00080070020436811461B68184700F00F038B
:1028C000082B0AD802064CBF054A064ADB0013440F
:1028D000186810B143681B6818471020704700BF84
:1028E000CC0700208407002038B5094B1C6864B170
:1028F000054602E023681C683CB1636820461B68FB
:10290000294698470628F5D038BD062038BD00BFB7
:102910008007002038B504460D4604F01BFF18B1AF
:10292000054B1B78022B01D0082038BD29462046D4
:10293000BDE8384005F04EB87507002038B50446AC
:102940000D4604F007FF18B1054B1B78022B01D090
:10295000082038BD29462046BDE8384005F0C4B8F7
:1029600075070020F8B543689B6805460E46144677
:102970001BB19847062800D0F8BD34BB2B7AB34270
:1029800028D9093506EB46010D446B78DBB11F46AB
:1029900005E0013404F0EEFEA74214D06B78E2B2F9
:1029A000934214D9AB782A19D65C33073046F0D459
:1029B00005F054F9304605F0F7F80134304604F0DC
:1029C000D9FEBC42EAD10020F8BD0720F8BD0023A3
:1029D0001B78FFDE6378FFDE43681B6903B118478D
:1029E000184670472DE9F0472B4BD3F80090B9F10A
:1029F000000F48D099F808A0BAF1000F3CD009F1B7
:102A00000906002704E00137574506F1030633D0D5
:102A1000D9F804309B68FCB22BB10022214648460D
:102A200098470628EFD199F80830A3422DD973783A
:102A3000002BE8D09846002405E0013404F09AFE0B
:102A40004445E0D07378E2B29A4221D2B378321989
:102A5000D55C2B072846F0D405F000F9284605F090
:102A6000A3F80134284604F085FE4445EAD1013735
:102A7000574506F10306CBD1D9F80030D3F80090C2
:102A8000B9F1000FB6D1BDE8F08700235B78FFDE17
:102A900000231B78FFDE00BF800700202DE9F843EC
:102AA000204BD3F80080B8F1000F35D098F808908B
:102AB000B9F1000F29D008F109050027D8F8043032
:102AC000DB68FCB213B121464046984798F80830BD
:102AD000A34223D96B789BB10024E2B29A421E46EE
:102AE0000BD22A19AB780134D05C04F0AFFEB442AB
:102AF00006D06B78E2B29A42F3D300231B78FFDE54
:102B000001374F4505F10305D8D1D8F80030D3F887
:102B10000080B8F1000FC9D1BDE8F88300235B78CD
:102B2000FFDE00BF8007002070B503780446852BC8
:102B300000F2BD80DFE813F0E501A201BC001D0238
:102B40004102DF00E600BB00FE0011012401BB00D2
:102B5000BB00BB00BB003701BB00BB00BB00BB0020
:102B6000BB00BB00BB00BB00BB00BB00BB00BB008D
:102B7000BB00BB00BB00BB00BB00BB00BB00BB007D
:102B8000BB00BB00BB00BB00BB00BB00BB00BB006D
:102B9000BB00BB00BB00BB00BB00BB00BB00BB005D
:102BA000BB00BB00BB00BB00BB00BB00BB00BB004D
:102BB000BB00BB00BB00BB00BB00BB00BB00BB003D
:102BC000BB00BB00BB00BB00BB00BB00BB00BB002D
:102BD000BB00BB00BB00BB00BB00BB00BB00BB001D
:102BE000BB00BB00BB00BB00BB00BB00BB00BB000D
:102BF000BB00BB00BB00BB00BB00BB00BB00BB00FD
:102C0000BB00BB00BB00BB00BB00BB00BB00BB00EC
:102C1000BB00BB00BB00BB00BB00BB00BB00BB00DC
:102C2000BB00BB00BB00BB00BB00BB00BB00BB00CC
:102C3000BB00BB00BB00BB004B0186005A01010278
:102C4000CD01DF00854B8649D3E900029047854BD3
:102C50001C684CB1824D636820461B682946984722
:102C600023681C68002CF6D17F4C63680BB10D20E3
:102C70009847FFF713FF01F0FDFB7C4B1B68002B0F
:102C800000F0D28101207A4D04F0FAFA2B78022B61
:102C900002D0053B032B08D802F030FB2B78022B27
:102CA00001D0082B01D104F02BFD01232B7070BD46
:102CB0006F4D2B78022B02D0053B032B08D802F076
:102CC0001DFB2B78022B01D0082B01D104F018FD3D
:102CD000654B5B6803222A700BB102209847614B59
:102CE0001D6845B16B6828461B68214698472B68CC
:102CF0001D68002DF6D1594B2146D3E90002BDE8ED
:102D0000704010478278110602F00F034CBF594AF9
:102D1000524ADB001344D3E90002214690470028C1
:102D2000C5D0A0780207C2D00307C0D4BDE8704068
:102D300004F02EBF4C4B5B680BB108209847494B01
:102D40001D68002DB3D06B6828461B682146984744
:102D50002B681D68002DF6D1A9E7434B5B680BB1CA
:102D6000092098473F4B1D68002DA0D06B6828466E
:102D70001B68214698472B681D68002DF6D196E701
:102D8000394B5B680BB10A209847364B1D68002D04
:102D90008DD06B6828461B68214698472B681D68B4
:102DA000002DF6D183E7304B5B680BB10F209847BD
:102DB0002C4B1D68002D3FF47AAF6B6828461B68CA
:102DC000214698472B681D68002DF6D16FE7284CE7
:102DD0002378062B00F02A8103F0FD03052B7FF4F6
:102DE00066AF04F097FC0223237070BD204DFFF7FF
:102DF00055FE04F06DFA2B78022B02D0053B032B15
:102E000008D802F07BFA2B78022B01D0082B01D1D5
:102E100004F076FC134A146800232B704CB1164E54
:102E2000636820461B683146984723681C68002C5D
:102E3000F6D10A4B1049D3E9000290470A4B5B6870
:102E40000BB10E2098472B78022B03D0053B032BA8
:102E50003FF62DAFBDE8704002F050BA8407002065
:102E6000C086010080070020680700207C07002042
:102E700075070020CC070020BC8601008A4DFFF7B3
:102E80000DFE01F0EDFA2B78022B07D05A1F032A12
:102E900000F2BF80082B01D004F03CFC834B5B6840
:102EA00002222A700BB101209847814B2146D3E9B9
:102EB000000290477F4B1D68002D3FF4F8AE6B6811
:102EC00028461B68214698472B681D68002DF6D1BF
:102ED000EDE6754D2B78032B00F0B18004F0D6FBA6
:102EE00000283FF4E4AE2B78022B00F0DA805A1F62
:102EF000032A00F2CF80082B00F0D38006232B702A
:102F000070BD694B1B78032B00F09580082B00F0F7
:102F10009280664B5B680BB100209847664B1D683A
:102F2000002D3FF4C4AE6B6828461B6821469847C5
:102F30002B685D68002DF6D170BD5B4D2B78032B9F
:102F40007FF4B5AE04F0BAFA00283FF4B0AE2B78A7
:102F5000022B02D0053B032B08D802F0CFF92B78C7
:102F6000022B01D0082B01D104F0CAFB04232B70E3
:102F700070BD4D4D2B78082B46D0022B7ED0053BE3
:102F8000022B73D805232B70484B5B680BB10320D1
:102F90009847474B2146D3E900029047454B1D68AF
:102FA000002D3FF484AE6B6828461B682146984785
:102FB0002B681D68002DF6D170BD3C4B5B680BB1D2
:102FC000032098473A4B3D49D3E900029047394BDB
:102FD0001C684CB1394D636820461B6829469847E8
:102FE00023681C68002CF6D12F4D2B78062B18D0A7
:102FF000082B06D0022B04D0053B032B41D804F04C
:1030000089FB02232B7070BD02232B7004F08CFB14
:10301000BAE72B4802F044F92B78022B7FF43AAF41
:103020003CE707232B7070BD207A2CE604F072FB7E
:103030000823237070BD2348FFF776FD69E704F08D
:103040003DFA00283FF44AAF2B78022B02D0053B13
:10305000032B08D802F052F92B78022B01D0082B51
:1030600001D104F04DFB04232B7037E7144802F024
:1030700017F92B78022B01D0082B83D104F040FBE9
:1030800080E70F4802F00CF92B78022BB9D0082BFF
:10309000B7D0B4E70A4802F003F92B78022B7FF48B
:1030A0002AAF04F02DFB29E77507002068070020F0
:1030B00084070020800700207C070020B4860100E0
:1030C00028000020B886010070B5264E82B0346812
:1030D00000230193FCB1A588A5B1E388B3F5006F87
:1030E0003ABF5A1C92B2012205F1FF3528BF0023D6
:1030F000E280A58001A8ADF80630FFF715FD01209C
:1031000002B070BD2046FFF70FFD1749174801F0C8
:10311000DFFE3560F3E71449144801F0A7FE0446CA
:1031200030600028D7D1124B1B6813B9184602B083
:1031300070BD01F053FD0F4A0D481388B3F5006FC1
:1031400039BF5D1CADB20125234601211580ADF8C4
:10315000063001F0EFFE002001F048FD01A8FFF766
:10316000E3FCCCE7600700205C0700203000002073
:1031700018080020140800204360CA699A4205D349
:103180008A6902600B67CB610020704701F1280259
:1031900002608B6700207047F0B58446006891F8A4
:1031A00008E0002800F01485A0F213307C2800F21B
:1031B00081807C287ED8DFE810F09E0011039B01FF
:1031C000FD03F400EC00C302A3017D007D007D003F
:1031D0007D007D007D00720473017D007D007D0017
:1031E0007D001D0460012F017D007D007D008604AF
:1031F000FC001C017D007D007D007D000A044F0164
:103200003F037D007D007D007D007D007D00AE02DE
:103210007D007D007D007D0042047103E702CB024A
:1032200055037D007D00B3010103F9024D039602B1
:103230007D007D00BB02B3026503A6027D007D0018
:10324000ED030903F5039E025D037D007D007D0013
:103250007D007D007D007D007D007D007D007D0086
:103260007D007D007D007D007D007D007D007D0076
:1032700061043D027D007D007D0005047D007D0030
:103280007D007D0030047D007D007D007D002004F8
:103290007D007D007D007D007D007D005E048E024E
:1032A0007D007D007D007D0082007D007D007D0031
:1032B0007D00820000231846CCF80030F0BD0124C8
:1032C000002012B19CF804501554914E9148057895
:1032D00030780130C0B23070854200F212848E4DD9
:1032E00028780130C0B28645287000F2198440F277
:1032F0009A330120E0E7002A00F038859CF80400AA
:103300001070012B4FF00B008CF8040040F25D852B
:103310000546561C0324022035700D7D8CF80450A0
:10332000984280F0DE84104405709C424FF0020009
:103330008CF8040080F0BC84151901342870A34275
:103340004FF002008CF8040040F29E8415190134FD
:103350002870A3424FF002008CF8040040F27D84F4
:10336000151901342870487E8CF80400A34240F2FD
:103370006284151901342870A3424FF000008CF8C4
:10338000040040F24E84151901342870624D00206B
:10339000A9E7002A00F053859CF804001546012493
:1033A000E0E7002A00F03A859CF804001546012465
:1033B000CEE7002A40F004850124487E8CF8040002
:1033C0009C4280F0998301340020A3428CF80400D1
:1033D00040F23C825148056801340E7D28788642CF
:1033E00000F096834B486D78494E05700020307090
:1033F00072E70124002AE7D09CF80440154601201A
:10340000002683422C708CF8046040F21F82434CEB
:1034100016542568441CE0E740480568002A00F07F
:1034200004859CF804401646012034702C780E7DEB
:10343000A64200F00A848E7DA64200F07D8400241E
:1034400083428CF8044040F20182441C002AC4D01C
:103450009CF804601654C0E7002A00F0A6849CF88B
:103460000450164601200024984235708CF8044020
:1034700080F04F8415180130C2E7002A00F0C5849F
:103480009CF80440154601202C70244C256883428A
:103490006C788CF8044040F2F28316180130C4E7CF
:1034A000002A40F0B684754601241B480078A842E3
:1034B00080F0F88400EB400001F10905174F2E5C05
:1034C0008CF804600544A3423D6040F22784601CF0
:1034D000002A00F0F7839CF80450155583424FF002
:1034E00000048CF8044040F2D98315180130CBE772
:1034F000002A00F062849CF804501046012413E76F
:10350000002A00F0A4849CF80400154601243CE73E
:1035100024090020250900202C090020280900206A
:10352000002A00F08E849CF80440154601202C707F
:1035300083424FF024048CF8044040F2778315183E
:1035400001302C7083424FF001048CF8044040F2AB
:103550006383151801302C7083424FF003048CF8FC
:10356000044040F25483151801302C708C7D8CF887
:103570000440834240F24683151801302C70834288
:103580004FF004048CF8044040F2328315180130E7
:103590002C7083424FF024048CF8044040F22383C3
:1035A000151801302C7083424FF002048CF804404F
:1035B00040F22383151801302C7083424FF002042F
:1035C0008CF8044040F2FF82151801302C709842AC
:1035D0004FF005048CF8044080F0F082151801309B
:1035E0002C7083424FF024048CF8044040F2E182B6
:1035F000151801302C7083424FF006048CF80440FB
:1036000040F2D282151801302C700C7D8CF80440E9
:10361000834240F2C482151801302C708D7D8CF8E5
:103620000450834240F2B6821618441C3570994803
:103630000568D7E6002A00F032849CF8044015465D
:1036400001202C70934C944D24682D786678AE42FE
:1036500040F22D84A67825448342AD5D8CF8045059
:1036600040F22183451C12B19CF804601654207866
:103670000C7D844200F085828C7D844200F03B8387
:103680004020AB428CF8040040F2D5816C1C002A2B
:1036900000F066829CF8040050559C424FF00000F8
:1036A0008CF8040080F044821519013428707948A0
:1036B0000D7D00680078854200F03F828D7D854257
:1036C0007FF403AE0020A3428CF8040040F29883FC
:1036D00020460134F5E5002A00F08E839CF80400B2
:1036E00015460124E2E7002A00F0B8839CF8044064
:1036F0001546012042E7002A00F0B6839CF80440FA
:103700001546012089E7002A00F0BB839CF804409D
:10371000154601205AE75F4801240568002095E618
:10372000002A00F09F839CF804401546012039E7E9
:10373000002A00F095839CF804401546012027E7F5
:10374000002A00F080839CF804001546012412E64C
:10375000002A00F05C839CF80440154601202C7080
:1037600083424FF001048CF8044040F27B8215182C
:1037700001302C7083424FF005048CF8044040F275
:103780005F8215180130D2E6002A00F033839CF8DE
:103790000440154601202C7098424FF010048CF81C
:1037A000044080F0768215180130D8E7002A00F036
:1037B00051839CF8044015460120CCE6002A00F015
:1037C00044839CF8044015460120BAE6002A00F024
:1037D00050839CF80440154601200BE7002A40F076
:1037E0005283087D8CF80400012B40F27A8203207A
:1037F000022402259C428CF8045080F05982022455
:1038000098428CF8044080F03F82441C02209C4285
:103810008CF8040080F021820134487E8CF804008A
:103820009C4280F00882013400209C428CF8040005
:1038300080F0F7810134A9E5002A7FF4DDAD012491
:1038400000209C428CF80400FFF4C4AD40F23D33EC
:10385000012031E5002A00F0FF829CF80440154663
:10386000012082E6002A00F0E8829CF80440154618
:1038700001207EE7002A00F0F9829CF804501646E9
:103880000124D3E6002A00F0F8829CF80440154693
:10389000012091E628090020240900200120002AA7
:1038A00040F0F882002498428CF8044080F00582B1
:1038B0000130102483428CF8044040F2EA81013048
:1038C000012483428CF8044040F2CC81013005246D
:1038D00098428CF8044080F0B38101302424834264
:1038E0008CF8044040F2A2810130012483428CF81C
:1038F000044040F291810130032483428CF804405B
:1039000040F2858101308C7D8CF80440984280F033
:1039100079810130042483428CF8044040F26881AC
:103920000130242483428CF8044040F25C81013051
:10393000022483428CF8044040F25F81013002246B
:1039400083428CF8044040F23E81013005248342DA
:103950008CF8044040F232810130242483428CF8F8
:10396000044040F226810130062498428CF804403D
:1039700080F01A8101300C7D8CF80440834240F2C3
:103980000E8101308C7D8CF80440834240F202812C
:10399000441C4CE6002A00F072829CF80440154654
:1039A00001201DE6002A00F066829CF804401546BE
:1039B000012029E6002A00F021829CF80400154627
:1039C0000124BBE4DB480125046800204BE6012408
:1039D0000020002A00F0FE819CF804501554A342F8
:1039E0004FF000008CF8040040F2DA810546161909
:1039F000601C38E5012000246AE501250024002A26
:103A000000F0A7809CF804001055AB424FF0400036
:103A10008CF804000FD96C1C3EE601250020002A1A
:103A200000F097809CF804401454AB424FF04000E3
:103A30008CF80400EFD84FF4617301203CE40120BE
:103A40000024002A00F06F819CF804501555834231
:103A50004FF024048CF8044040F2488115180130DE
:103A60002C7083424FF000048CF8044040F2258112
:103A7000151801308FE60124002508E601200024F6
:103A8000002A00F0F4809CF80450155583424FF052
:103A900005048CF804406FD915180130D1E50125D3
:103AA0000024002A00F04F819CF804001055AB421E
:103AB0004FF004008CF8040040F2268156196C1C6B
:103AC00030700D7AF1E401240020002A00F06081BA
:103AD0009CF804501554A3424FF002008CF80400E7
:103AE00040F23F8105461619601C35704C7E8CF8FB
:103AF000044083423FF6BEAC40F22F330120FFF773
:103B0000DBBB0720A3428CF8040030D9601CB7E768
:103B10000520A3428CF8040040F21E81601C90E74F
:103B20000920A3428CF8040040F22D81651CB8E7FF
:103B300040F285330120FFF7BFBB086AA34200783B
:103B40008CF804003FF6C4AD40F28A330120FFF741
:103B5000B3BB4020AB428CF804007FF66CAF6C1C0A
:103B60000020A3428CF80400E2D901349FE540F222
:103B70006E330120FFF7A0BB40F26F330120FFF747
:103B80009BBB0320AB428CF8040040F229812846FD
:103B9000013544E740F25A330120FFF78DBB40F274
:103BA00059330120FFF788BB4FF456730120FFF70C
:103BB00083BB40F257330120FFF77EBB40F2563300
:103BC0000120FFF779BB40F253330120FFF774BBAC
:103BD00008208CF80400002B7FF48DAB40F21333E7
:103BE0000120FFF769BB40F251330120FFF764BBAE
:103BF0004FF454730120FFF75FBB40F252330120B2
:103C0000FFF75ABB40F24D330120FFF755BB4FF48D
:103C100053730120FFF750BB40F24B330120FFF7F5
:103C20004BBB40F21A330120FFF746BB40F24A3348
:103C30000120FFF741BB40F219330120FFF73CBBE5
:103C400040F249330120FFF737BB022483428CF84E
:103C5000044040F2CA80441C37E74FF44673012009
:103C6000FFF72ABB40F246330120FFF725BB0524AE
:103C700083428CF804407FF67FAF0130E2E440F2EB
:103C800029330120FFF718BB40F217330120FFF75B
:103C900013BB40F245330120FFF70EBB4FF44A73CC
:103CA0000120FFF709BB40F273330120FFF704BB8B
:103CB00040F216330120FFF7FFBA4FF45173012091
:103CC000FFF7FABA83428CF80420E7D90130194C87
:103CD000256883426C788CF80440D0D90130FFF716
:103CE000A5BB40F215330120FFF7E6BA40F243339B
:103CF0000120FFF7E1BA0220AB428CF8040040F249
:103D00008F802C4601357AE640F222330120FFF7FE
:103D1000D3BA40F236330120FFF7CEBA40F2273350
:103D20000120FFF7C9BA242483428CF80440DDD96E
:103D30000130B7E5280900200A2483428CF80440AA
:103D400076D9441C45E60420AB428CF80400DBD94C
:103D50006C1C0D7AFFF7A9BB40F242330120FFF73C
:103D6000ABBA40F22E330120FFF7A6BA0B20012B8D
:103D70008CF8040029D9087D8CF80400022BB0D0FF
:103D80000420032435E540F221330120FFF794BAE3
:103D90000220A3428CF80400E3D90134FFF70DBBE5
:103DA00040F235330120FFF787BA01240020A342F7
:103DB0008CF80400ADD9013442E50220012418E555
:103DC0009CF80450164601208FE64FF445730120FD
:103DD000FFF772BAA3428CF80420E1D90134E5E779
:103DE0004FF45E730120FFF767BA40F22D330120D4
:103DF000FFF762BA01205CE5012458E40120FEE4EB
:103E000040F28F330120FFF757BA01205FE701200E
:103E100056E59CF804001646012451E60124F5E419
:103E200040F27D330120FFF747BA0120FFF7FEBAC9
:103E30004FF44D730120FFF73FBA012047E50124FD
:103E4000EBE401204AE50124EEE401204DE50124E4
:103E5000FFF79CBA01204FE5012054E5012059E508
:103E600001205EE5012063E501208BE50124FFF7D9
:103E7000DEBB012078E501207DE501205FE5012022
:103E80006BE5012062E59CF80450164602240120EF
:103E9000FFF742BA9CF8044015460120E0E50120F6
:103EA000FFF7D0BB034A002313601B78FFDE00231B
:103EB0001B78FFDE2809002078B910B50446086891
:103EC000037B202B01D0062010BD00F10E0107223C
:103ED000183012F0A3F8204610BD0320704700BF31
:103EE0002DE9F0470B7888B00C4605460E2B3DD8DF
:103EF000DFE803F0180C18183C351D3C3C083C1852
:103F000018181800C3690BB1032198472B680022C9
:103F1000C3E91E22C3E9202203F134011A845A6244
:103F2000DA6259670024204608B0BDE8F087027ABB
:103F3000002A00F05B81837A0930002B00F0518168
:103F40008B78E97A415C9942ECD01B06E67823D461
:103F500006F0FD03012BE5D01EB30324E3E74B7805
:103F6000D9094FEA531203D1012A72D00624DAE7A5
:103F700012F0030248D0012AF8D1A378212BF5D101
:103F8000B4F80720072AF1D10168601C183108B085
:103F9000BDE8F04700F078BA002E52D0032EC1D011
:103FA000DBE72C68012A04F10C0300F023816A7B13
:103FB000012A40F21D8106938F4AAB7B05922B4468
:103FC000A76A93F80D80002F40F08480E36FC4F857
:103FD0008030E36AA767E767002B77D004F12C03F2
:103FE00093E8030004F1240383E803000023E36261
:103FF00005A94046FEF7A2FC0446EB69002B92D0CF
:104000000021284698478EE703F01F03012BADD10E
:10401000A378062BAAD105A8039200F06DFD03AB8F
:10402000E27800932179034606462846FEF726FAF1
:1040300005289BD0601C039A314600F025FA0446FF
:1040400071E7EB69002B3FF46DAF012128469847DB
:1040500068E7A3780668202B1AD0222B86D1B4F803
:104060000730002B82D1B4F80330328C338403F054
:10407000010102F001028A423FF454AFC3690029F2
:1040800000F08380002B3FF44DAF0221984749E7B1
:10409000B4F80720072A7FF469AF3373B4F8073008
:1040A0000024DBB2737320460E36CDE90563079416
:1040B00000F094FD204605A9FEF72CFC04460028DC
:1040C00000F08680002000F091FD2CE70023636261
:1040D000002492E7D4F884A0606A574528BF574669
:1040E00004F134093A46494611F098FF09EB0702FA
:1040F000AAEB0703C4E91D23E26FE6673A44C4F85C
:104100008020E26A002AE1D004F12C0797E803003E
:1041100004F124064FF0000986E80300C4F82C904F
:10412000DBB92CE011F07AFFA26AA36FC4F88020FB
:104130009B1AA367636F13446367EB6913B1002194
:1041400028469847E36A002BC1D097E8030086E829
:104150000300A36FC4F82C908BB1D4E909029A42F2
:10416000616FDFD91A4611F059FFA26FA36AE267A7
:104170009B1AA362636A13446362002BA8D005A94B
:104180004046FEF7DBFB044637E70BB103219847B7
:104190002B7A012B27D96B7B1BB3AB7B2B44187B72
:1041A00002F0A2FC2B7A012B1DD96B7B012B17D9B6
:1041B000AB7B2B44587B02F097FC002306F13402C2
:1041C000C6E91E33C6E920337362F3627267A9E65B
:1041D0000A4B03A9CDE9033500F07AFC044671E7E8
:1041E00000231B78FFDE00235B78FFDE5378FFDEC1
:1041F0003378FFDE7378FFDE01420000B93E000035
:104200004360CA699A4210D38A6910B40260C869CF
:104210000C6FC01A1A44C8612344003818BF01202B
:104220005DF8044B8A610B67704701F12802026058
:1042300000208B67704700BF0368B3F820C01CF0F4
:10424000010F16D00B46017A012916D9417B91B195
:1042500010B5817B084484B091060CBF0124002472
:1042600001A9007B0394CDE90132FEF753FB04B0B2
:1042700010BD082070470B78FFDE00235B78FFDE5F
:104280000368D3F88000704730B50468258CEB07CD
:1042900083B031D5A56F03460846DDB9616A11B117
:1042A000112003B030BDC4E909021A7A012A28D9C5
:1042B0005A7B012A23D9997B134A0B440C34587B2F
:1042C0006946CDE90024FEF739FB002808BF92209B
:1042D00003B030BD954228BF15462A46616F11F0E4
:1042E0009DFED4E91D320020521B2B44C4E91D322F
:1042F000C4F8805003B030BD082003B030BD0B7847
:10430000FFDE4B78FFDE00BF7931000000207047F0
:104310002DE9F04F87B04B6802900C461546002BF4
:1043200000F08C8003F030FCE368AB4228BF2B46E2
:1043300081461E46002B00F08F804FF0000B5F4639
:104340004FF0010AD84601900395D4E90115B54212
:10435000A94628BFB1463846A6EB09064F44F1B13D
:10436000019B4A46184411F059FEA268E168C4F85E
:104370000480A2EB0902A1EB0903A260E3602AB367
:10438000002B08BF4FF0000A002EDED1DDF80490AC
:10439000029B5046C3E9009707B0BDE8F08FA5B176
:1043A000019B1A1820464B4650F8101B4D686D684B
:1043B000A847A268E168A2EB0902A1EB0903A26089
:1043C000E360EAB14FF0010BDAE7E368BBF1000FFD
:1043D00016D1002B28D02168D9B1CDF8108003E088
:1043E000A36821680133A3604B6800225D6804A8BC
:1043F0000123A8470028F3D12061002EA5D1C5E7ED
:10440000226812681168216093B14FF0010B0029F6
:10441000E3D1DDF80490039D6160002FB8D0BD4268
:1044200088BF4FF0000AB3E7DA46002E8DD1ADE722
:104430009A464FF0010B002E87D1A7E70B681B6847
:10444000D3F80090B9F1000F7FF46CAF8F68002FA4
:104450007FF468AFBA469BE71F464FF0010A97E723
:1044600008B50020FEF7ECF9BDE808408020FEF713
:10447000E7B900BF08B50020FEF7F6F9BDE808402F
:104480008020FEF7F1B900BF70B5C38893421E4685
:1044900028BF1646934284B00D4612D8002400204F
:1044A0000394CDE9015600F099FB01A98020FEF7A5
:1044B00031FA044688B1002000F098FB204604B091
:1044C00070BD8020144603F035F9B4FBF0F303FB14
:1044D0001044B4FA84F46409E1E703F013FC802883
:1044E0000BD1094A094B92E8030083E8030000203E
:1044F00000F07CFB204604B070BD002000F076FB8D
:104500001024204604B070BD288701005409002003
:104510002DE9F04F0B780E2B87B00DD8002B34D03F
:10452000013B0D2B31D8DFE803F0221D32303F5420
:10453000303030301D106B78852B26D1A34B1A7884
:10454000032A22D1A249042417E0A04B1A784AB1C9
:104550009F4900240A789F481C7022F002020A70CA
:10456000FEF7E2FA0025284607B0BDE8F08F974B2A
:104570001A78032A09D0964903240A7895481C70B2
:1045800022F002020A70FEF7CFFA0625EBE7924806
:1045900000F0EAFC0028E5D0904B0122DA65BFF379
:1045A0006F8FBFF34F8FDDE705230DF101008DF80D
:1045B000003003F063FB9DF80130894C002203F0CA
:1045C0001F052260032D00F29580DFE805F0BE95FF
:1045D000736CC87803280C46D7D0814E33681BB360
:1045E00000227168326098470546F0B93368002BA5
:1045F00000F0D180A378002BB4D103F065FBB1E7C4
:104600004FF08042714BD2F838141A78C90712D58E
:10461000022AA7D06E4902249CE76C4B1A78012A23
:10462000A0D06B49012495E70E2503F061FB2846D5
:1046300007B0BDE8F08F012AF3D193E7062900F017
:10464000A781082900F0888169BB664F022238469D
:1046500011F0F2FC5E4A3B781278920743F00101B8
:1046600048BF43F00303397048BF3B70BDF80730C3
:10467000022B1D4628BF0225022B00F2DC810023FD
:104680000020CDE90375059300F0A8FA03A9802066
:10469000FEF740F90546002800F05081002000F0A8
:1046A000A5FA062DC1D16846FEF71EF90546002D74
:1046B00069D0BAE79DF80500050707D06946FEF7FF
:1046C000FDF806280546F2D19DF8013013F0600F81
:1046D000C3F341160ED19DF802303C4A9DF80550B7
:1046E0001278012B00F0CB80032B00F0B780002B59
:1046F00000F09180062598E79DF8050003A9FEF7D4
:10470000BBF8074600284CD09DF80C106A46FEF70F
:10471000D1F806280546CAD19DF801309DF80C1045
:1047200013F0600FE6D1294A9DF802601278DD0986
:1047300040F058810B2EDDD1052A34D1BDF803306D
:10474000FF2B40F29A8107256FE713F0600FC3F348
:104750004117A8D1DB099DF802107FF46FAF032940
:1047600023D0092940D001299DD1BDF80330012B68
:1047700099D1FEF75DF8002800F02681144A1378DD
:1047800023F00203137023682BB103F0BBFA002857
:104790007FF4E8AE31E703F0A1FAE3E6284600F043
:1047A00025FA102541E708253FE7BDF80330012B26
:1047B0007FF479AFFEF73CF8002800F00581044A49
:1047C000137843F002031370DDE700BFA109002056
:1047D000A00900201C8701009C09002000700240F5
:1047E000540900205C090020B04D2B78043B012BBC
:1047F000D9D89DF80330002B00F00C81012BA2D1F9
:10480000FEF7F0F82B78052BBDD00523A8482B70B8
:10481000FEF78AF9B7E7052A01D02907C3D1284650
:1048200003F0FAF9BDF80730A24F022B1D4628BF4E
:104830000225022B388000F2C9800020CDE90375E3
:10484000059600F0CBF903A98020FEF763F8054632
:10485000002873D0002000F0C9F9E6E62B073FF5E9
:1048600049AFBDF80330002B7FF444AF2F073FF46E
:1048700041AF052A97D1284603F08AF983E72E072E
:104880003FF538AFBDF80330002B7FF433AF280776
:104890003FF430AF052A86D1284603F0DFF92846D9
:1048A00003F082F96FE7BDF80730002B3FF473AFD8
:1048B000092B28BF09239946FDF7D8FF4FF0090AB5
:1048C0000646B8B103974FF0000801E008F101086F
:1048D00072680123D2F804B03146002203A8D847F9
:1048E0000028F3D13268337A16682B44C244DDB213
:1048F000002EE7D16F4F70494A46384611F08EFBC3
:104900003D71A7F802A0FDF793FF18B1FB7943F0C2
:104910002003FB71FDF7AAFF684B1860BDF8072064
:10492000DA600020C3E9017900F058F96449802079
:10493000FEF704F8054600287FF4B0AE03F0E2F974
:1049400080287FF42BAF5F4B93E8030084E80300DB
:10495000284600F04BF916E7544A1278052A03D08E
:10496000042A7FF4A0AE2B46BDF80720514F012A40
:10497000154628BF0125012A3B707FF680AE8020B6
:1049800002F0D8FE0123B3FBF0F300FB03F377E65C
:104990009DF80430022B86D0032B58D0012B7FF4D6
:1049A00082AEBDF80730002B3FF4F5AE4649122227
:1049B0000DF10100FFF768FD0546062D3FF473AECB
:1049C000002D3FF4E0AE30E60F252EE6802002F009
:1049D000B1FE0223B3FBF0F303FB00F0821E56424C
:1049E00056412AE7002E52D00A2E7FF483AE052AC4
:1049F0007FF4D9AE3846FDF7EFFF2E4903462A462D
:104A00000DF101000B70FFF73FFD0546002D3FF44F
:104A1000BAAE0AE6FEF742F82B78042B3FF4B3AEA9
:104A20002A4A23481378042123F0020329701370C3
:104A3000FEF77AF8A7E6802002F07CFE0223B3FBA3
:104A4000F0F300FB03F39E1E7342734118E6BDF8BA
:104A50000730002B3FF49FAEBDF805109DF8030012
:104A600000F07AF8014600283FF41DAE02780DF1FF
:104A70000100FFF709FD05469FE79DF80320384632
:104A8000FDF770FF0546002D3FF47DAECDE5052A0C
:104A90007FF489AE074902220DF101000E80FFF775
:104AA000F3FC0546002D3FF46EAEBEE5A1090020E3
:104AB0001C8701005C090020548701003009002098
:104AC000208701002887010060870100A0090020DD
:104AD00038B505460C4603F015F9A84207D194E80D
:104AE0000300044A82E803000023184638BD10235F
:104AF000184638BD5409002008B14023036001481E
:104B0000704700BF5C09002070B54FF0805286B03E
:104B1000D2F8A830D2F8A41000916FEA83436FEA6C
:104B200093430B4A0B4E9BB20D2102A811F084FB5C
:104B300002AD002404E015F8013B06F8013B013406
:104B400002A811F0B7FB8442F5D306B070BD00BFD8
:104B500084870100A409002090B3012809D002280D
:104B600007D0032805D0042803D0052801D0002051
:104B70007047174B03EB4003587828B3154B10B51B
:104B800053F82040F4B123780BB9A01C10BD0020CD
:104B9000FFF7B2FF2178C1B12246C4F1010C02EB4C
:104BA0000C03DCB2234620F8141012F8011F002970
:104BB000F5D101335B00DBB243F44073038010BDD9
:104BC00005487047204610BD704740F20233F5E7B4
:104BD000EC87010090870100E687010072B6024A67
:104BE0001368013313607047B4090020034A136847
:104BF000013B136003B962B6704700BFB4090020DF
:104C00001EF0040F1CBFEFF309800AE0EFF30880E9
:104C10000549064A884201D8904202D88D464FF095
:104C20000000034B184700000000042000E00320B0
:104C3000594C0000BFF34F8F0549064BCA6802F478
:104C4000E0621343CB60BFF34F8F00BFFDE700BFAF
:104C500000ED00E00400FA052DE9F04F83B0814635
:104C6000FDF7E4F9FCF7F6FE0028FBD1454F464A74
:104C7000464BDFF838819D6AB8F80230BF1AFF084A
:104C80003F0447F00107B9F1000F73D0002B41D169
:104C90003E4BDB6ADFF818B1DFF818A100240126CB
:104CA00002E001341A2C12D006FA04F32B42F8D099
:104CB0005BF82420002AF4D0B8F80230002BF0D0A2
:104CC000514638460134FDF7F3F81A2CECD12A0688
:104CD0000ED5B8F802302BB94846FFF7ABFF03B04A
:104CE000BDE8F08F294B2A495A6B3846FDF7E0F8AA
:104CF0002B04F1D5B8F80230002BEDD0234B254919
:104D00009A6B3846FDF7D4F84846FFF793FF03B097
:104D1000BDE8F08FD9F818201F493846FDF7C8F8CC
:104D2000B8F80230002BB3D0D9F80C300193D9F881
:104D300008300093D9E9002318493846FCF7C8FF2A
:104D4000B8F80230002BA3D0D9F81C300093D9E971
:104D5000042313493846FDF737F80C4BDB6A9907F3
:104D600098D5B8F80230002B94D00E493846FDF79C
:104D700003F98FE7002B8BD00B493846FDF7FCF881
:104D8000EBE700BF0CB5010064B4010000ED00E0EA
:104D9000F488010014890100F887010010880100DF
:104DA00048880100A4880100708801006401002087
:104DB000108E0100E888010099B110B4B2FBF3F441
:104DC00003FB1424A4B244B901604460846082816E
:104DD000C38120465DF8044B704709205DF8044B01
:104DE00070470E20704700BF10B483B050E8013FF9
:104DF0001FFA83FCC489A4448489A44528BFACEB72
:104E0000040C0489A44502BFBFF32F8F002207E0E2
:104E1000CCEA030C40E801C4002CE7D14FF00102BA
:104E20008DF803200193019C9DF803200C6032B1A2
:104E3000006810FA84F003B05DF8044B704702F08C
:104E4000FF03184603B05DF8044B70470A884B888F
:104E50009A4201D00020704750E8012FC2EA024276
:104E600040E80123002BF7D10120704710B483B034
:104E700050E8023F1FFAA3FCC488A44502BFBFF359
:104E80002F8F00220EE0C489A4448489A44528BF42
:104E9000ACEB040CC3EA0C4C40E802C4002CE7D194
:104EA0004FF001028DF803200193019C9DF803202F
:104EB0000C6032B1006800EB144003B05DF8044BA5
:104EC000704702F0FF03184603B05DF8044B7047CB
:104ED0000A884B889A4201D00020704750E8022F80
:104EE000C2EA224240E80223002BF7D1012070479A
:104EF000034653E8000F0A4643E8002C9CF0000FDD
:104F0000F7D17047034653E8002F02EB010043E856
:104F1000000C9CF0000FF6D1704700BF034653E829
:104F2000002FA2EB010043E8000C9CF0000FF6D12B
:104F3000704700BF034653E8002F8A422CBF501A27
:104F4000104643E8000C9CF0000FF4D1704700BFFE
:104F50000346012253E8001F41EA020043E8000C27
:104F60009CF0000FF6D170470346002253E8000F73
:104F700000EA020143E8001C9CF0000FF6D17047E4
:104F800010B504460020FFF729FED4E900311A6865
:104F90008A4215D9511E19602168A368086812F861
:104FA00001CCE268248B1B1A0879DBB2984204FB1F
:104FB0000C2438BF0B710020FFF718FE204610BDEF
:104FC00000240020FFF712FE204610BD38B505462C
:104FD00000200C46FFF702FE2A681368591C116076
:104FE000E9682A8B641AB4FBF2F41C70BDE83840FF
:104FF0000020FFF7FBBD00BF2DE9F041078BCE1C61
:10500000043F3E440546B6FBF7F6FFF7B9FF00281C
:1050100034D0F6B24FF48073013E04468380C780DB
:1050200005602CD003464FF0000807E06279464542
:1050300002F1010262713860056020D028461F46E7
:10504000FFF79EFF08F1010803460028EED16779BB
:105050002668791E16D02246013399421268FBD188
:10506000D2F8008057B1002501E034463668214669
:1050700040460135FFF7AAFFAF42F6D8002420468C
:10508000BDE8F08121463046FFF7A0FFF6E700BFFC
:1050900001210430FFF736BF2DE9F041012104461C
:1050A0000430FFF73BFF10F0FF0301D0BDE8F081B3
:1050B00067792668791E15D0224601339942126815
:1050C000FBD1D2F80080002FF0D0002501E034465B
:1050D0003668214640460135FFF778FFAF42F6D8E3
:1050E000BDE8F08121463046BDE8F041FFF76EBFD4
:1050F0002DE9F8438846C788417907FB01F1043957
:1051000002EB030C1E1D6145154638BFCD1AB74290
:105110000446B6FBF7F207FB126002D8013A246896
:10512000FCD13E1AAE4228BF2E469DB14FF0000979
:105130000430AD1B324608EB0901204410F06EFF2D
:10514000AF42B14424683E464FF0000028BF2E46CF
:10515000002DEDD1BDE8F88370B54468064620689F
:105160000D4618B908E02468206828B1B3682946BC
:1051700098470028F7D120682860256070BD00BFDF
:105180004368186808B102681A6070474368186875
:10519000704700BF4368186818B908E00346006804
:1051A00028B18142FAD10A681A600120704770471D
:1051B00010B568B90E4CA368012262703BB1D3E907
:1051C00000230020A2609847A368002BF7D110BDF0
:1051D0000128FCD1064C2369A070002BF7D0D3E93D
:1051E00000230120226198472369002BF7D110BDCD
:1051F000B809002038B50C4C237843B185250B4BFA
:10520000D3F800340BB10123A370284638BD0848F9
:105210006360A3602361E36000F0B8F8054600F026
:10522000C1F801232370EAE7B8090020000001401B
:10523000B151000038B5154DAB78044673B110B1CB
:105240004368012098470020FFF7C8FCEB68013352
:10525000EB60BDE838400020FFF7C8BC03F0FF005A
:10526000FFF7BCFC64B12A6942B1944208D01346EE
:1052700001E09C4204D01B68002BFAD122602C6113
:10528000EB68002BE2D100F0A3F8DFE7B8090020BB
:105290004FF08043D3F81804C0F30040704700BFBC
:1052A00038B5154D6B78044673B110B143680020D2
:1052B00098470020FFF792FC6B6801336B60BDE8F4
:1052C00038400020FFF792BC03F0FF00FFF786FC98
:1052D00064B1AA6842B1944208D0134601E09C42EE
:1052E00004D01B68002BFAD12260AC606B68002BE5
:1052F000E2D100F07FF8DFE7B809002038B50B4CA9
:105300000020FFF76BFC6368013B6360656825B1B3
:10531000BDE838400020FFF769BC00F07BF86570FD
:10532000BDE838400020FFF761BC00BFB80900208D
:1053300010B5074C23784BB9064B002808BF184618
:1053400000F03EFB08B90123237010BD852010BD7D
:10535000CC090020A48E010010B5044600F060FBCB
:1053600000F066FB204600F04DFB00F051FB0020F2
:1053700010BD00BF034653E8000F00EA010243E8F6
:10538000002C9CF0000FF6D1704700BF044A13793F
:1053900023B901211060918018467047852070471D
:1053A000D0090020084B1A68D20704D4C02283F821
:1053B000002301221A60054A4FF080410123C1F801
:1053C00018351370704700BF00E100E0CD090020E0
:1053D0004FF080430022C3F8042182B0D3F80421A7
:1053E0000192019802210122C3F804139A6002B0CD
:1053F000704700BF4FF080430022C3F8002182B005
:10540000D3F80021019201990122C3F804231A6004
:1054100002B070474FF0804201230021C2F80833E8
:1054200082B0C2F80011D2F80011019101995360C5
:10543000D2F80C3403F00113B3F1011FF8D0024B82
:1054400000225A7102B07047D009002010B54FF009
:10545000804382B0D3F8002162B10021164AC3F81C
:105460000011D3F80011507900910121009CC3F87C
:105470000813A8B14FF08043D3F80421CAB1002229
:10548000C3F80421D3F80421019202210A4A0198A9
:10549000C3F808131368012002B0BDE81040184794
:1054A0001368517198474FF08043D3F80421002AC4
:1054B000E5D102B010BD00BFD00900202DE9F047B2
:1054C000002384B0CDE902331C4AD2F8001101292F
:1054D00000F03B821E46194BD3F80421012A00F04C
:1054E0002582164BD3F80821012A00F01082134BB5
:1054F000D3F80C21012A00F0FB81104BD3F81021C6
:10550000012A00F0E6810D4BD3F81421012A00F0A6
:10551000D1810A4BD3F81821012A00F0B881074B3A
:10552000D3F81C21012A0BD0044BD3F87C21012A8B
:1055300000F02C8256BB04B0BDE8F087006000404C
:10554000D3F804231106EFD50022C3F81C21D3F8A9
:105550001C110091D3F87C110098012946F08006B7
:1055600014D1C3F87C21D3F87C3101934FF0A042D1
:10557000019BD2F82015CD4B0291C2F82015D3F82B
:1055800020250392C3F8202546F00046C84F00248A
:105590000125A30003F18043354203F5C0434FEAE0
:1055A00045050BD0D3F8100557F82420D3F8101573
:1055B000C0F30520C1F3014102B190470134082C2A
:1055C000E7D1002EB7DABA4CB84E01254FF0A0470C
:1055D00094F960305A1C4BD0C3F3C20101F11002A0
:1055E0000DEB020103F0070211F808CC05FA02F2F4
:1055F0001CEA020FD9B203F03F0039D01F2800F295
:10560000368103464FF0A04909EB830205FA03F304
:10561000D2F800C7D2F800E72EF4403EC2F800E707
:1056200004EB000ECCF3014C9EF930E0D2F800A759
:1056300054F82E80BCF1020F0CBF4FF4403E4FF4E3
:10564000003E4EEA0A0EC2F800E7C9F82035B8F16C
:10565000000F0DD08909032900F08C81BCF1020FE5
:1056600000F08581BCF1030F02D1022900F0828194
:1056700094F96130581C4BD0C3F3C20101F1100200
:105680000DEB020103F0070211F808CC05FA02F253
:105690001CEA020FD9B203F03F0039D01F2800F2F4
:1056A000EA8003464FF0A04909EB830205FA03F3B1
:1056B000D2F800C7D2F800E72EF4403EC2F800E767
:1056C00004EB000ECCF3014C9EF930E0D2F800A7B9
:1056D00054F82E80BCF1020F0CBF4FF4403E4FF443
:1056E000003E4EEA0A0EC2F800E7C9F82035B8F1CC
:1056F000000F0DD08909032900F04181BCF1020F90
:1057000000F03A81BCF1030F02D1022900F0378189
:1057100094F96230591C4BD0C3F3C20101F110025D
:105720000DEB020103F0070211F808CC05FA02F2B2
:105730001CEA020FD9B203F03F0039D01F2800F253
:105740009E8003464FF0A04909EB830205FA03F35C
:10575000D2F800C7D2F800E72EF4403EC2F800E7C6
:1057600004EB000ECCF3014C9EF930E0D2F800A718
:1057700054F82E80BCF1020F0CBF4FF4403E4FF4A2
:10578000003E4EEA0A0EC2F800E7C9F82035B8F12B
:10579000000F0DD08909032900F0F680BCF1020F3B
:1057A00000F0EF80BCF1030F02D1022900F0EC8081
:1057B00094F963305A1C4AD0C3F3C20101F11002BC
:1057C0000DEB020103F0070211F808CC05FA02F212
:1057D0001CEA020FD9B203F03F0038D01F2852D87C
:1057E00003464FF0A04909EB830205FA03F3D2F810
:1057F00000C7D2F800E72EF4403EC2F800E704EB01
:10580000000ECCF3014C9EF930E0BCF1020F54F8CD
:105810002E80D2F800E70CBF4FF4403A4FF4003A24
:105820004EEA0A0EC2F800E7C9F82035B8F1000FB9
:105830000DD08909032900F09880BCF1020F00F017
:105840009180BCF1030F02D1022900F08E80D7F8BD
:1058500020350293C7F82035D6F82025039213434C
:10586000C6F820257FF4B4AE04B0BDE8F08703F09D
:105870001F03B146C8E603F01F03B14614E703F067
:105880001F03B14660E703F01F03B146ABE7D3F84F
:10589000042350067FF543AE0022C3F81821D3F845
:1058A00018310093009B46F0400638E60003005094
:1058B000D8090020D3F8042394067FF52AAE0022ED
:1058C000C3F81421D3F814310093009B46F020064E
:1058D0001FE6D3F80423D5067FF515AE0022C3F8E2
:1058E0001021D3F810310093009B46F010060AE611
:1058F000D3F8042317077FF500AE0022C3F80C216C
:10590000D3F80C310093009B46F00806F5E5D3F878
:10591000042352077FF5EBAD0022C3F80821D3F82A
:1059200008310093009B46F00406E0E5D3F8042319
:1059300091077FF5D6AD0022C3F80421D3F80431D6
:105940000093009B46F00206CBE5D2F8046316F004
:1059500001063FF4C0ADC2F80031D2F80031009327
:10596000009BB8E501297FF472AFC0476FE70129BA
:105970007FF47EAEC0477BE601297FF4C9AEC04705
:10598000C6E601297FF414AFC04711E70022C3F82F
:105990007C21D3F87C3101934FF0A042019BD2F8D7
:1059A0002015064B0291C2F82015D3F8202503924A
:1059B000C3F82025002E3FF406AEE5E500030050B5
:1059C0000E4A1378C3B903780D494FF0804CC3F3E6
:1059D0004003CCF88035037803F00103CCF8783528
:1059E0000B68DB0704D4C02381F8003301230B606C
:1059F000012313700020704785207047500A002053
:105A000000E100E0014B02681A607047440A002080
:105A10004FF080434FF46072C3F80423704700BF17
:105A20004FF080434FF46072C3F80823704700BF03
:105A3000014B00221A607047440A002010B54FF055
:105A4000804386B0D3F80443620703D5D3F8082116
:105A5000002A62D1A30605D54FF08043D3F8142164
:105A6000002A4FD1600605D54FF08043D3F81821A6
:105A7000002A3BD1210604D54FF08043D3F81C21E6
:105A80004ABBE20504D54FF08043D3F82021B2B9D8
:105A9000A30512D54FF08043D3F824216AB1002228
:105AA000C3F82421D3F82421214B0592059A1B68C1
:105AB000022006B0BDE81040184706B010BD002215
:105AC000C3F820211A4AD3F8203104930120136827
:105AD000049A9847DCE70020C3F81C01144AD3F865
:105AE0001C3103931368039A9847CAE70022C3F84E
:105AF0001821104AD3F81831029301201368029A32
:105B00009847B7E70020C3F814010A4AD3F81431C4
:105B100001931368019A9847A4E70022C3F808216B
:105B2000054AD3F8083100931368009A984791E723
:105B3000440A0020480A00204C0A002008B5FFF75C
:105B40007DFFBDE80840FFF781BC00BF014B1B682B
:105B5000184700BF540A002030B44C68A34208D94B
:105B6000002545600968016093420CD0002030BCDC
:105B7000704743600D6805600868E41A1844934252
:105B80004C600860F2D1201E18BF012030BC704765
:105B900010B4D1E90034A24228BF2246C0E9003245
:105BA000D1E90030801A1344C1E90030003818BF31
:105BB00001205DF8044B70474B689A4228BF1A4693
:105BC00062B10B68C0E90032D1E90030801A134499
:105BD000C1E90030101E18BF012070471346F1E7DD
:105BE00010B50748074A0849126882B0002301240B
:105BF0000370019401A80B70904702B010BD00BF64
:105C0000A10C0020A40C0020A00C0020704700BFB5
:105C100000B583B00D4B0E4900228DF80420D3F857
:105C20002025ADF80620D3F8C0040A4A0968136895
:105C3000002814BF4FF001204FF48070034301A8E7
:105C40001360884703B05DF804FB00BF007002409A
:105C5000A40C00209C0C0020F8B54B680B4F9A4216
:105C600028BF1A4615460C4606460968384610F005
:105C7000D5F9C6E90075D4E90030401B2B44C4E9CE
:105C80000030003818BF0120F8BD00BF5C0A0020BA
:105C900070B54B689A4228BF1A460D461446064610
:105CA00062B91346C6E90034D5E90032121B234419
:105CB000C5E90032201E18BF012070BD09680248E6
:105CC00010F0ACF9004BEDE75C0A00204FF0805378
:105CD000D3F83031082B13D0164B17499A7B00208C
:105CE000032A087011D010B51C6882B094B1134B10
:105CF0000122DA64BFF36F8FBFF34F8F02B010BD84
:105D00000E4B0022C3F81C2CE6E70D486FF48031DF
:105D1000FFF730BB6FF480310948FFF72BFB094BCD
:105D2000ADF8064006221B688DF8042001A89847AC
:105D300002B010BD740B0020940C002000700240D3
:105D4000980C0020A40C002010B51E4BD3F8004482
:105D5000C3F8004482B0BFF36F8FBFF34F8FBFF320
:105D60006F8FBFF34F8FE10508D5174B174A1B689C
:105D700002200121019001A811709847A20508D5C1
:105D8000114B124A1B6803200021019001A81170D9
:105D90009847630514D50D4B1A788AB1094A012139
:105DA00000201870C2F808159165BFF36F8FBFF31C
:105DB0004F8F054B04221B6801920DEB02009847A0
:105DC00002B010BD00700240A40C0020A10C002005
:105DD00030B53C4B3C491C780A68200683B004F07F
:105DE0000F0316D41033012000FA03F31A430A609C
:105DF000364A126813420AD1354B8DF80700062245
:105E00001B688DF804208DF8064001A8984703B060
:105E100030BD01259D402A430A602E491AB231F84F
:105E2000133003F1804303F51C331968E1B10021FD
:105E30001960BFF36F8FBFF34F8F4FF08053802CEB
:105E4000D3F8303121D0082B04BF234BC3F81C1CDE
:105E5000224B00211970224B110103EB0212927B9D
:105E6000032A2AD05B5843B3184B1B681D40CED180
:105E7000174B8DF8064006221B688DF804208DF81C
:105E8000075001A8984703B030BD082B08BF124B3C
:105E9000124A08BFC3F81C1C124B0021117093F862
:105EA0009E20032A03D0D3F89030002BDCD16FF072
:105EB00001010648FFF75EFAD6E7E9430348FFF71A
:105EC00059FAD1E7A00C00209C0C0020980C00206F
:105ED000A40C0020008F010000700240940C0020F0
:105EE000040C0020740B00202DE9F04FDFF81CA2F9
:105EF000DFF82082DAF80040D8F80030234087B07D
:105F000000F0928013F0012200F0918092FAA2F446
:105F1000002C00F09180B4FA84F301271D469F40C5
:105F2000FB430F2D009319D8DFF8ECA10FFA85F988
:105F30000AEB09164FEA09191F46B2895AF80930C7
:105F4000716804A82C46984708B94AF8090065F01A
:105F50007F094FFA89F905F0080B24E0103DECB2F7
:105F6000654A019414F008004FEA041102EB04168C
:105F70004FFA84F96AD12546604B04F5947253F8C0
:105F800022B0B289716837685B4604A8B847049AA2
:105F90001AB1059A934500F28780DDE9007303F09A
:105FA000080B00B930604FF08053D3F83031082B24
:105FB00000F09480D8F80030059A3B40C8F80030D3
:105FC000B3681344B3604E4B0121B9F1000F19704F
:105FD00004994BDBBBF1000F59D0484BAD00C3F81F
:105FE000A017C3F8A42728232B44DBB203F1804376
:105FF00003F51C3301221A60BFF36F8FBFF34F8F7D
:10600000404A414B3D4913EA290338BF134633F850
:10601000142002F1804202F51C3202E0D1F8003176
:1060200013B91368002BF9D007B0BDE8F08F93FACD
:10603000A3F4002C7FF46FAF4FF0FF334FF0100943
:106040002D4E00932546CDF8049095E72B4BD3F8C1
:10605000C0B41BF4803F4DD05558B2897168009F81
:106060008346002304A8A84725469AE7BBF1000F02
:1060700039D105EB85039B0003F1804303F51C3305
:10608000AD00C3F80016C3F804260423ACE705EB03
:1060900085039B0003F1804303F51C33AD00C3F877
:1060A0000017C3F804279EE702240099B473174829
:1060B000FFF760F9019B8DF80E30154B8DF80F40FE
:1060C00006221B688DF80C2003A89847DAF80040D8
:1060D000D8F8003023407FF415AFA5E7074B8222A4
:1060E000C3F81C2C66E7054BAD00C3F8A016C3F837
:1060F000A426CAE7254644E7740B0020007002403E
:10610000940C0020EC8E0100008F0100980C002000
:10611000A40C00209C0C0020040C002010B54FF0B3
:10612000805382B0D3F83031082B18D0164B174C5F
:1061300093F83E200021032A217006D01B6B9BB1EF
:1061400002B0BDE81040FFF7CFBE11486FF4002148
:10615000FFF710F92378002BF2D002B010BD0D4BE1
:106160000022C3F81C2CE1E76FF400210848FFF778
:1061700001F9094B062103221B688DF80410ADF8C4
:10618000062001A89847E5E7740B0020940C002036
:10619000980C002000700240A40C00204FF08053A7
:1061A000D3F83031082B0BD0124B134993F88E20C3
:1061B0000020032A087002D0D3F880302BB170473A
:1061C0000E4B0022C3F81C2CEEE700B56FF0807177
:1061D00083B00B48FFF7CEF80A4B062108221B6854
:1061E0008DF80410ADF8062001A8984703B05DF8BB
:1061F00004FB00BF740B0020940C002000700240D0
:10620000980C0020A40C00204FF08053D3F83031BC
:10621000082B10D0144B154993F81E210020032A97
:10622000087003D0D3F8103153B1704710486FF4A1
:106230008071FFF79FB80F4B0022C3F81C2CE9E7D1
:1062400000B56FF4807183B00948FFF793F80A4BEB
:10625000062188221B688DF80410ADF8062001A8DD
:10626000984703B05DF804FB740B0020940C0020E9
:10627000980C002000700240A40C00204FF08053C6
:10628000D3F83031082B10D00A4B0B4993F89E20DD
:106290000020032A087003D0D3F8903003B1704770
:1062A00006486FF00101FFF765B8054B0022C3F8FF
:1062B0001C2CE9E7740B0020940C0020980C0020A3
:1062C000007002404FF08053D3F83031082B10D0CB
:1062D0000A4B0B4993F8EE200020032A087003D0E4
:1062E000D3F8E03003B1704706486FF02001FFF7A4
:1062F00041B8054B0022C3F81C2CE9E7740B0020C1
:10630000940C0020980C0020007002404FF0805345
:10631000D3F83031082B10D00A4B0B4993F8FE20EC
:106320000020032A087003D0D3F8F03003B170477F
:1063300006486FF04001FFF71DB8054B0022C3F877
:106340001C2CE9E7740B0020940C0020980C002012
:10635000007002404FF08053D3F83031082B10D03A
:106360000A4B0B4993F80E210020032A087003D032
:10637000D3F8003103B1704706486FF08001FEF793
:10638000F9BF054B0022C3F81C2CE9E7740B002071
:10639000940C0020980C0020007002404FF08053B5
:1063A000D3F83031082B10D00A4B0B4993F8AE20AC
:1063B0000020032A087003D0D3F8A03003B170473F
:1063C00006486FF00201FEF7D5BF054B0022C3F867
:1063D0001C2CE9E7740B0020940C0020980C002082
:1063E000007002404FF08053D3F83031082B10D0AA
:1063F0000A4B0B4993F8BE200020032A087003D0F3
:10640000D3F8B03003B1704706486FF00401FEF7CF
:10641000B1BF054B0022C3F81C2CE9E7740B002028
:10642000940C0020980C0020007002404FF0805324
:10643000D3F83031082B10D00A4B0B4993F8CE20FB
:106440000020032A087003D0D3F8C03003B170478E
:1064500006486FF00801FEF78DBF054B0022C3F818
:106460001C2CE9E7740B0020940C0020980C0020F1
:10647000007002404FF08053D3F83031082B10D019
:106480000A4B0B4993F8DE200020032A087003D042
:10649000D3F8D03003B1704706486FF01001FEF713
:1064A00069BF054B0022C3F81C2CE9E7740B0020E0
:1064B000940C0020980C00200070024010B54FF0A2
:1064C000805382B0D3F83031082B17D0164B174CBD
:1064D0009A7F0021032A217006D01B699BB102B06C
:1064E000BDE81040FFF700BD11486FF40031FEF722
:1064F00041FF2378002BF2D002B010BD0D4B0022DB
:10650000C3F81C2CE2E76FF400310948FEF732FFB4
:10651000094B062101221B688DF80410ADF80620F6
:1065200001A89847E5E700BF740B0020940C0020F9
:10653000980C002000700240A40C002010B54FF011
:10654000805382B0D3F83031082B18D0174B184C39
:1065500093F84E200021032A217006D01B6C9BB1BA
:1065600002B0BDE81040FFF7BFBC12486FF48011C5
:10657000FEF700FF2378002BF2D002B010BD0E4BC7
:106580000022C3F81C2CE1E76FF480110948FEF7E4
:10659000F1FE0A4B042206211B688DF80410ADF8A9
:1065A00006200DEB02009847E4E700BF740B0020C3
:1065B000940C0020980C002000700240A40C0020D5
:1065C00010B54FF0805382B0D3F83031082B18D07B
:1065D000164B174C93F85E200021032A217006D039
:1065E0001B6D9BB102B0BDE81040FFF77DBC1148A8
:1065F0006FF40011FEF7BEFE2378002BF2D002B03C
:1066000010BD0D4B0022C3F81C2CE1E76FF4001104
:106610000848FEF7AFFE094B062105221B688DF8DE
:106620000410ADF8062001A89847E5E7740B002098
:10663000940C0020980C002000700240A40C002054
:1066400010B54FF0805382B0D3F83031082B18D0FA
:10665000164B174C93F86E200021032A217006D0A8
:106660001B6E9BB102B0BDE81040FFF73DBC114866
:106670006FF48001FEF77EFE2378002BF2D002B08B
:1066800010BD0D4B0022C3F81C2CE1E76FF4800114
:106690000848FEF76FFE094A062312688DF8043099
:1066A000ADF8063001A89047E6E700BF740B002064
:1066B000940C0020980C002000700240A40C0020D4
:1066C00010B54FF0805382B0D3F83031082B18D07A
:1066D000164B174C93F87E200021032A217006D018
:1066E0001B6F9BB102B0BDE81040FFF7FDBB114826
:1066F0006FF40001FEF73EFE2378002BF2D002B0CB
:1067000010BD0D4B0022C3F81C2CE1E76FF4000113
:106710000848FEF72FFE094B062107221B688DF85B
:106720000410ADF8062001A89847E5E7740B002097
:10673000940C0020980C002000700240A40C002053
:1067400010B54FF0805382B0D3F83031082B18D0F9
:10675000164B174C93F82E200021032A217006D0E7
:106760001B6A9BB102B0BDE81040FFF7BDBB1148EA
:106770006FF48021FEF7FEFD2378002BF2D002B0EB
:1067800010BD0D4B0022C3F81C2CE1E76FF48021F3
:106790000848FEF7EFFD094B062102221B688DF821
:1067A0000410ADF8062001A89847E5E7740B002017
:1067B000940C0020980C002000700240A40C0020D3
:1067C0002DE9F04F514BD3F86C54C3F86C5483B09F
:1067D000BFF36F8FBFF34F8FDFF84891F5B14C4E89
:1067E0004C4FDFF84481DFF834A195FAA5F4316805
:1067F000002C68D0B4FA84F0012303FA00FB0F28C0
:10680000044625EA0B0523DDDAF800304BEA0101E6
:106810001BEA030F31600AD0002DE6D199F8003051
:10682000002B70D103B0BDE8F04FFFF75DBBA0F1C6
:106830001002D2B2062001218DF804003B688DF8C9
:1068400006208DF8071001A89847002DCDD1E5E767
:1068500038F8103003F1804303F51C334BEA010193
:106860001A683160DAB100221A60BFF36F8FBFF38C
:106870004F8F4FF08053D3F8303168B3082B04BFEB
:10688000224BC3F81C2C244B002289F8002003EB78
:1068900000120101927B032A17D05B58ABB1DAF8E2
:1068A00000301BEA0303B7D1062164F07F028DF8A4
:1068B00004108DF8062039688DF8073001A8884744
:1068C000002D92D1AAE71022B4E701218140C943EB
:1068D0001248FEF74FFDE2E7082B04BF0B4BC3F84D
:1068E0001C0C0F4B002289F8002093F89E20032AED
:1068F00003D0D3F89030002BD1D16FF001010748BD
:10690000FEF738FDCBE703B0BDE8F08F0070024022
:106910009C0C0020A40C0020040C0020980C0020EB
:10692000740B0020940C0020008F01002DE9F04F23
:10693000664D674C95F900902F782368DFF898A191
:10694000DFF89C81DAF800106FEA090207F00F0601
:10695000DB43D20F9BB206EB02124FF0010B0B434D
:106960000BFA02F21342D8F8801485B015D1594FB2
:1069700003AE21F07F01297057486FF00111FEF737
:10698000F9FC23683A68052143F00103039130467E
:106990002360904705B0BDE8F08F00200091FEF71E
:1069A0001DF9B9F1000F00994FEA061022DB06F13C
:1069B0001003DAF800E0DFF82CC10BFA03FB3BEA26
:1069C0000E0300EB0C026FEA0B094FD14CF80030BC
:1069D00009EA0E03CAF80030236803EA09032360BA
:1069E00003233C4F937303AE00200091FEF7FEF8A3
:1069F0000099BEE73B0712D4802F55D006F2DA3358
:106A00005B00C8F80038D8F80438D8F80428DBB29E
:106A100043F002031343C8F80438D8F80438226856
:106A2000DAF800C00123B3406CEA02061E4202D12C
:106A3000284F03AED8E72CEA03061A43274B2260FF
:106A400000221A5018448DF80E700323214F8373CF
:106A5000CAF800608DF80F3003AE06238DF80C30B5
:106A600030463B68009198470099BDE70020CDE98A
:106A70000012FEF7B3F8236817F0080703EA0903CA
:106A8000DDE90012236007D106F5947648F82670F8
:106A9000BFF36F8FBFF34F8F0020CDE90012FEF7D9
:106AA000A5F8DDE900129BE740F2B473C8F800389E
:106AB000D8F80438D8F80428DBB243F004031343B1
:106AC000C8F80438D8F80438A9E700BFA00C0020A3
:106AD0009C0C0020A40C0020980C0020040C00202A
