:1010000000000420F51900001D1A0000F54B000037
:10101000211A0000231A0000251A00000000000019
:10102000000000000000000000000000271A00007F
:10103000291A0000000000002B1A00002D1A0000E1
:10104000455B0000E1A20000555B0000F57C00005C
:10105000757D00002F1A0000B95400002F1A0000FF
:101060002F1A00002F1A00002F1A00002F1A00005C
:101070002F1A00002F1A00002F1A00002F1A00004C
:101080002F1A0000E11900002F1A00002F1A00008B
:101090002F1A00002F1A00002F1A00002F1A00002C
:1010A0002F1A00002F1A00007D860000098700001B
:1010B0002F1A00002F1A000000000000000000009E
:1010C0002F1A00002F1A00002F1A00002F1A0000FC
:1010D0002F1A00002F1A00002F1A0000F56B0000D5
:1010E0002F1A00002F1A00002F1A00000000000025
:1010F000000000002F1A0000000000002F1A00005E
:1011000000000000000000000000000000000000DF
:1011100000000000000000000000000000000000CF
:1011200000000000000000000000000000000000BF
:1011300000000000000000000000000000000000AF
:10114000000000000000000000000000000000009F
:10115000000000000000000000000000000000008F
:10116000000000000000000000000000000000007F
:10117000000000000000000000000000000000006F
:10118000000000000000000000000000000000005F
:10119000000000000000000000000000000000004F
:1011A000000000000000000000000000000000003F
:1011B000000000000000000000000000000000002F
:1011C000000000000000000000000000000000001F
:1011D000000000000000000000000000000000000F
:1011E00000000000000000000000000000000000FF
:1011F00000000000000000000000000000000000EF
:101200000348044B834202D0034B03B11847704795
:101210000401002004010020000000000548064BE6
:101220001B1AD90F01EBA301491002D0034B03B1E4
:10123000184770470401002004010020000000004E
:1012400010B5064C237843B9FFF7DAFF044B13B10E
:101250000448AFF300800123237010BDC8010020B3
:10126000000000007CB2010008B5044B1BB104492A
:101270000448AFF30080BDE80840CFE7000000005D
:10128000CC0100207CB20100A3F5803A704700BF7A
:10129000154B002B08BF114B9D46FFF7F5FF0021B2
:1012A0008B460F461148124A121A14F047FE0C4B97
:1012B000002B00D098470B4B002B00D09847002004
:1012C000002104000D000B4814F0C7FD14F0F4FDDC
:1012D0002000290014F0A2F814F0C6FD0000080058
:1012E000000000000000000000000420C8010020F1
:1012F000300E0020915E010030B48D688468C268B1
:10130000CB68A54293412CBF0120002030BC704720
:101310002DE9F04F2DED028B83B008EE100A00F09E
:101320002FFB40B1B04AD2E9003113F1807341F193
:101330000001C2E9003118EE100A002100F03CFB68
:10134000AA4D60B32B6853B3A94B2C681B7823B309
:101350001CB3A84800F040FBA34BA74A19685B6880
:101360004018D2E9001243F10003884273EB0202F5
:1013700003D210F1807043F10003D4E902128842D5
:10138000934180F06181B2F1FF3F08BFB1F1FF3FAF
:1013900003D09A48214603F0D9FE00232B6018EEB3
:1013A000100A012100F008FB002840F02D8194482C
:1013B00001A903F057FD00283AD0914C4FF0FF38B7
:1013C0004FF0FF3909E033B301A9204603F07CFD5B
:1013D00001A9204603F046FD50B30378012B11D03C
:1013E000022BF0D1854E304603F0C4FE30B1C0E987
:1013F0000289304603F0BEFE0028F8D17C4B012262
:101400001A70E1E72B684168994200F0B6807B488A
:1014100003F0BAFED8E74168D1E90223B3F1FF3FF8
:1014200008BFB2F1FF3FCFD0744803F08FFECBE787
:10143000724FDFF8C081DFF8B091384603F0A0FEAC
:10144000002852D0D0E90223B3F1FF3F08BFB2F128
:10145000FF3F00F08E80296891B12968D1E902012F
:1014600082428B4145D22B68D3E90223B3F1FF3F7F
:1014700008BFB2F1FF3F03D02968384603F066FE8B
:10148000384603F077FE04464046D4E902BA00F03D
:10149000A3FAD9E90013584E4018D6E9002143F1C8
:1014A0000003904273EB010103D210F1807043F10D
:1014B0000003BBEB00006AEB0302012872F100029B
:1014C00025DBB0F5350F4ED25A464FF49603002176
:1014D000404600F0CBF988B10D281CD000233846D7
:1014E0002B6003F04DFE0028ACD12B68002B00F0E0
:1014F000A28003B0BDEC028BBDE8F08F2B68002BFF
:101500003ED02C6003B0BDEC028BBDE8F08F002113
:10151000404600F045FA364B1B78002BDED04046A3
:1015200000F05AFAD9F80030D6E90012C018D9F8FC
:10153000043043F10003884273EB020203D210F13E
:10154000807043F10003D4E90212884293411CD217
:10155000B2F1FF3F08BFB1F1FF3FBFD0214638468F
:1015600003F0F4FDBAE7404600F036FA254A02449B
:10157000ABE7384603F0FEFD5FE700232B6023E76F
:1015800018EE100A00F040F9BBE7002003F020FB42
:1015900023692BB94FF0FF324FF0FF33C4E9022328
:1015A000002003F01DFBD4E905309847002003F02C
:1015B0000FFB2369A3B1D4E90212B2F1FF3F08BFC8
:1015C000B1F1FF3F0CD05B1842F10002A360E26072
:1015D000002003F005FB2146384603F0B7FD7DE708
:1015E000002003F0FDFA79E7E8010020580200200E
:1015F000F00100201C000020500200208484010023
:1016000008000020FFFFB4002748284E00F0E4F94E
:10161000274B1A685B688018D6E9001243F1000373
:10162000884273EB020203D210F1807043F1000391
:10163000C6E90003BBE618EE100A03B0BDEC028B4E
:10164000BDE8F04F00F0E4B8002003F0C1FA2369D0
:101650002BB94FF0FF324FF0FF33C4E902230020D3
:1016600003F0BEFAD4E905309847002003F0B0FA41
:101670002369A3B1D4E90212B2F1FF3F08BFB1F16F
:10168000FF3F0CD05B1842F10002C4E90232002097
:1016900003F0A6FA0748214603F058FD7DE6002036
:1016A00003F09EFA79E600BF1C00002050020020E3
:1016B000E80100208484010010B5134B13491C6815
:1016C000134882B008235822019403F071FB0446AA
:1016D00010B1204602B010BD0E4A0F4801A900F01B
:1016E00021F804460028F4D10B48012100F03EF90E
:1016F00001231946094A084800F08EF8084B0122D8
:1017000020461A7002B010BD80840100F401002050
:1017100008000020111300001C000020FFFF7F00C4
:10172000F001002010B52F4C437944F823202E4CB3
:1017300004EBC3031B79002B41D103680A88C3F86B
:10174000082590F904308A78002B24DB03F16043EC
:10175000520103F56143D2B283F8002390F90430BB
:10176000002B09DB21494FEA531C012203F01F0320
:1017700002FA03F341F82C3043791D4A44F8330050
:1017800004EBC30153884FF0010C022B81F804C015
:1017900009D8002010BD174903F00F035201194466
:1017A000D2B20A76DAE7144B14481549C01AC008B9
:1017B000000440F0030000F03FFC002010BD0C4B83
:1017C0005B88012B01D8082010BD0B4B0B480D493D
:1017D000C01AC008000440F0020000F02DFC0820F0
:1017E00010BD00BF640200205C02002000E100E0A8
:1017F00028010020FCEC00E080B20100C8B201002A
:10180000B484010090840100036801221A607047CB
:10181000036801225A60704770B405684FF4803441
:101820008C40C5F80843056801F1500CC5F84843E1
:101830004FEA8C0C05681FFA8CFC002645F80C60FA
:1018400083B055F80C500195019D056801F5A8710C
:1018500022F07F4245F821200268C2F8444313B1C8
:101860000368C3F8044303B070BC70472DE9F04728
:101870004FF4803722F07F4802688F40C2F84873E7
:101880000268C2F808730268044602EB810001F1A5
:1018900050060D46D2F80415D0F84025C0F8401582
:1018A000B600B6B2521A21684FF0000941F806900E
:1018B00082B08959009122F07F42012A00999A460C
:1018C00045D02268D2F80465C2F84473A8EB06023A
:1018D00022F07F42012A05F5A87527D0226842F838
:1018E00025802168D1F80405A8EB0002CAF1FF1396
:1018F000013A03F57F4322F07F42934212D342B173
:10190000C1F8447323680020C3F8047302B0BDE833
:10191000F08708F1010341F825302168D1F804353A
:101920009842EDD00D2002B0BDE8F087236808F1A1
:10193000010243F825200C4B4FF4806043F0010373
:1019400098472168D1F804359E42D9D0EAE7064A83
:101950004FF4806042F001029047226842F80690FE
:1019600092590192019AACE7D084010002680223E7
:10197000C2F8443311B10268C2F80433704700BFA3
:101980000368D3F8040100B97047002282B0C3F89D
:101990000421D3F804310193019B012002B0704768
:1019A00002684FF4803303FA01F1C2F84813036868
:1019B000C3F80813704700BF50318900036889B22B
:1019C000585800B9704700225A5082B05B580193B2
:1019D000019B012002B070470368D3F804057047EB
:1019E000024A034B10681B68184700BF5C020020C6
:1019F000640200200649074A074B9B1A03DD043B9B
:101A0000C858D050FBDC06F031FAFFF741FC00006B
:101A100054BB010008000020C8010020FEE7FEE7DB
:101A2000FEE7FEE7FEE7FEE7FEE7FEE7FEE7FEE78E
:101A300070B5344C84B004F5836003F085FA04F289
:101A4000144003F081FAA368DAB2D11C04EB8100E0
:101A500014F821104D0723D403F1020C04EB820289
:101A60000133D1680191DBB204EB830301F003027F
:101A7000012ADE6865463ED0022A0FD1BDF8063045
:101A8000C3F389130333360C0CEB93051E4803F0A4
:101A900067FA00B1A560304604B070BD0026F5E7D6
:101AA00001F00405017801F00301012903F1020CA2
:101AB0000CD0022902F103010DD004EB8100002DAE
:101AC000CCD0017801F003010129F2D10388C3F3DE
:101AD0008313634402E043880CEB9313DAB2D11C06
:101AE00004EB810014F8211001F0040503F1020C4D
:101AF000002DE6D1B2E7BDF80430C3F38313360CF2
:101B00001D44C3E7380300204C070020704700BF86
:101B10002DE9F047964CD4E901239A4284B064D071
:101B20000023C4F81834BFF34F8FA568EAB2D31C62
:101B300004EB830114F82330580718D566680B7836
:101B400003F00303012B46D0022B03D14B8802354F
:101B500005EB9315EAB2D4F81804D31C04EB830107
:101B600028B9AE423DD914F823305B07E7D404EB23
:101B700082026B1CDBB2D26804EB830302F0030128
:101B8000DB680229CDE9012305F1020731D00129E3
:101B900000F0A580D4F810543DB12B6828469B680E
:101BA0009847EB681D68002DF7D1724B5B88012BBD
:101BB00009D97148714B7249C01AC008000440F03D
:101BC000020000F039FAD4E90130C01A18BF012030
:101BD00004B0BDE8F0870B880235C3F383131D44BE
:101BE000B8E7A66004B0BDE8F087002004B0BDE807
:101BF000F087BDF8063063489DF80460C3F3891987
:101C00004D46502D28BF502565F38F1305F108016F
:101C1000ADF8063003F0ECF9C6F3C20680460028A2
:101C2000B8D003F02FFA0023082201A9404603F0A0
:101C300059FAFB43DBB20133FAB20332B5EB830F3F
:101C400004EB82014FEA830A40F28880A5EB0A0583
:101C5000524640460823EDB203F044FA4A490AF1DD
:101C600008032A46404603F03DFA09F1030907EB51
:101C70009907D4F81834D4F81054002B74D105B354
:101C8000DFF808A14FF00709EB685A79B2B1BDF847
:101C9000082019795AF8220001EB410109FA01F2F2
:101CA000052E02EA000208BF0326CA40964205D864
:101CB0002B6828461B6841469847EB681D68002D35
:101CC000E2D1404603F0E2F9002002F081FFD4F8AF
:101CD000183403B9A760002002F082FF73E7BDF853
:101CE00004602848C6F38313062B28BF062363F33A
:101CF0008916023303F00F018900ADF8046003F088
:101D000077F9C6F3C206804600283FF443AF03F0DC
:101D1000B9F90023082201A9404603F0E3F9BDF810
:101D2000043013F4707FA4D06FF00109A9EB05090A
:101D30000825F9B203312B46042204EB8101404609
:101D400003F0D0F9BDF804300137C3F3831309EB76
:101D50000702934205F10405EBD88AE72A460823D7
:101D6000404603F0BFF980E7404603F08FF92AE7C9
:101D70003803002024010020C0B2010080B201001D
:101D8000D884010040B30100440300206401002016
:101D90002DE9F047DFF8ECA00546002098460F46F5
:101DA000914602F015FFDAF80830DAF8046003F51E
:101DB00080739B1B052B61D80AF21C44012120462D
:101DC00003F09CF8FFF734FE0146204603F096F836
:101DD000DAE9012303F580739B1A052BEED9D3B200
:101DE0000333063240F2051100204AF82310CAF8E6
:101DF000042002F0F5FEB31CDBB20AEB8303089A61
:101E0000C3F80C90F31CDBB20AEB83031C48C3F845
:101E10000C80331DDBB20AEB83030021DA60731DF3
:101E2000DBB20AEB8303099ADA6003F05DF880F312
:101E300010031B0443EA1543ED00721C05F038053E
:101E400045F48075D2B2F6B245F001050AEB820284
:101E5000033645EA8725D3604AF826509AF80030C1
:101E60001BB9FFF753FEBDE8F087FFF751FE0028CE
:101E7000F7D0FFF74DFE0028F7D1F2E73246AEE784
:101E800054070020380300202DE9F047DFF8DCA0DC
:101E90000546002098460F46914602F099FEDAF872
:101EA0000830DAF8046003F580739B1B042B58D8C4
:101EB0000AF21C440121204603F020F8FFF7B8FD88
:101EC0000146204603F01AF8DAE9012303F580738E
:101ED0009B1A042BEED9D3B203330532C52100205F
:101EE0004AF82310CAF8042002F07AFEB31CDBB2D1
:101EF0000AEB8303089AC3F80C90F31CDBB20AEBDD
:101F000083030021C3F80C80331DDBB20AEB83038B
:101F10001548DA6002F0E8FF80F31002711CEB0054
:101F200003F03803C9B2F6B2120443F0C1030AEB5E
:101F30008101033643EA872342EA1542CA604AF820
:101F400026309AF800301BB9FFF7E0FDBDE8F087B6
:101F5000FFF7DEFD0028F7D0FFF7DAFD0028F7D104
:101F6000F2E73246B7E700BF5407002038030020ED
:101F70002DE9F843DFF8BC90054600200F46904657
:101F800002F026FED9E9016303F580739B1B022B47
:101F90004CD809F21C440121204602F0AFFFFFF7A4
:101FA00047FD0146204602F0A9FFD9E9012303F5C8
:101FB00080739B1A022BEED9D3B20333033245212F
:101FC000002049F82310C9F8042002F009FEB31CD0
:101FD000DBB209EB83030021C3F80C80144802F044
:101FE00083FF80F31002711CEB0003F03803C9B2C9
:101FF000F6B2120443F0410309EB8101033643EAD0
:10200000872342EA1542CA6049F8263099F8003021
:102010001BB9FFF77BFDBDE8F883FFF779FD0028CA
:10202000F7D0FFF775FD0028F7D1F2E73246C3E796
:1020300054070020380300202DE9F041294C0646C2
:102040000020884602F0C4FDD4E9017303F58073D3
:10205000DB1B012B44D804F21C450121284602F069
:102060004DFFFFF7E5FC0146284602F047FFD4E9A3
:10207000012303F580739B1A012BEED9D3B20333EE
:1020800002320521002044F82310626002F0A8FD0E
:102090000021154802F028FF80F31002791CF3009C
:1020A00003F03803C9B2FFB2120443F0010304EB9A
:1020B0008101033743EA882342EA1642CA6044F8A2
:1020C000273023781BB9FFF721FDBDE8F081FFF72A
:1020D0001FFD0028F7D0FFF71BFD0028F7D1F2E71E
:1020E0003A46CBE7380300205407002038B5084BA8
:1020F000D3F8104401251D704CB1E3685D7123686D
:1021000020465B689847E3681C68002CF5D138BD11
:1021100038030020064B1A5C1F2A86BF054902F0CF
:102120001F024FF0A04101239340C1F80C357047C6
:102130001085010000030050064B1A5C1F2A86BF61
:10214000054902F01F024FF0A04101239340C1F85E
:102150000835704710850100000300500A4B185CD9
:102160001F288ABF09494FF0A04100F01F00D1F895
:1021700004350122824022EA03001340C1F8080519
:10218000C1F80C35704700BF1085010000030050F6
:10219000C30706D4830742BF2F4B0C22C3F818276E
:1021A000704710B44FF08043D3F84036DA0723D499
:1021B0004FF0A043284903224024C3F81827C3F84E
:1021C0002027C1F82427C3F83027C3F808454FF467
:1021D00000724FF48074C3F80845C1F808254FF425
:1021E00080528107C3F8082503D51B4B0C22C3F886
:1021F00018275DF8044B70474FF01023D3F80433D1
:1022000003F00703072BD3D1144A0123C2F8043586
:10221000D2F80034002BFBD04FF010210020D1F871
:1022200004330E4C23F0070343F00403C1F80433D6
:10223000C2F80405D4F80034002BFBD0BFF34F8F55
:102240000749084BCA6802F4E0621343CB60BFF34E
:102250004F8F00BFFDE700BF0003005000E00140CA
:1022600000ED00E00400FA0500B585B0034600214A
:1022700001AA44F20100CDE90111039300F004F832
:1022800005B05DF804FB00BF70B572B6FFF72EFF16
:10229000FFF73EFC0028FBD1194D6B88FBB9194BA9
:1022A000D3F8F030DB070DD5174C184E00BE6B8805
:1022B000012B07D9A01BC0080004154940F00200FB
:1022C000FFF7BAFEBFF34F8F0E49124BCA6802F4F4
:1022D000E0621343CB60BFF34F8F00BFFDE70A4CB2
:1022E0000A4E0D49A01BC008000440F00100FFF792
:1022F000A3FE044BD3F8F030DA07D8D5D6E700BFF9
:102300002401002000ED00E0C0B2010080B2010015
:10231000208501000400FA051485010030B583B062
:10232000124801A902F05CFDF0B1114D0446286885
:102330002060002002F04CFC0E4B0F481B88026806
:1023400001339B1AE380002102F0CEFDA080002023
:1023500002F046FC01A9054802F074FD074B1B681A
:1023600001460BB12846984703B030BD2C00002031
:1023700070850100F8070020140900205C07002088
:1023800030B50378052B83B0054625D0002B2AD124
:102390002B4B1C683CB1236868889B68984723686E
:1023A0005C68002CF7D1274C002002F011FC236858
:1023B00013B9254B6A881A800121224802F09EFD3C
:1023C000002002F00DFC214B1B6813B101212846AF
:1023D0009847236803B030BD1D4BD3F88424D3F84D
:1023E0008034DBB233B31B4801A902F0F9FC044688
:1023F0000028EFD02B682360002002F0E9FB124B8D
:1024000010481B88026801339B1AE380002102F008
:102410006BFDA080002002F0E3FB01A90D4802F053
:1024200011FD0A4B1B680146002BD3D02846984764
:1024300003B030BD084BD2B2052A08BF1D46D2E713
:102440000C09002014090020F80700205C07002078
:10245000007002402C0000206C85010070B501283E
:1024600082B006D0022804462AD0002831D002B01B
:1024700070BD2B4801A902F0B3FC04460028F6D039
:10248000284D28682060002002F0A2FB264B274838
:102490001B88026801339B1AE380002102F024FDAF
:1024A000A080002002F09CFB01A91D4802F0CAFC9C
:1024B0001F4B1B680146002BD9D028469847D6E70A
:1024C000174801A902F08CFC04460028CFD0194D12
:1024D000D7E7134801A902F083FC05460028C6D0BF
:1024E000154E30682860204602F072FB0E4B0F48F4
:1024F0001B88026801339B1AEB80214602F0F4FC32
:10250000A880204602F06CFB01A9054802F09AFC65
:10251000074B1B680146002BA9D030469847A6E719
:102520002C00002060850100F8070020140900201D
:102530005C07002068850100648501002DE9F04FEB
:1025400089B0002504460E4601929846049500E0A5
:10255000013562680123D2F804902146002204A8C4
:10256000C8470028F4D18DF80E00069085B3814647
:1025700082460BE09DF80E306768023BD7F804B046
:10258000D8479DF80E309A44554521D960680123FB
:10259000D0F804B00DF10E02214606A8D8476068B5
:1025A0000123D0F804B00DF10F02214606A8D84748
:1025B0009DF80F30B3424FF00002214606A8D9D152
:1025C000019B4B4508D009F101095FFA89F9D1E770
:1025D000052009B0BDE8F08F129A9DF80E30136007
:1025E00088F8003088F801606268023B556808F19D
:1025F0000202A847002009B0BDE8F08FF0B53C49C1
:1026000083B0054608233B484FF4847202F0D0FBA8
:1026100000285ED1384804F04FFB044610B1204634
:1026200003B0F0BD3549364A364B0870106001469C
:1026300048221860344813F081FC3448482221466F
:1026400013F07CFC002D4DD095E80700304B83E85B
:102650000700002002F068FE00283ED12D4C237AAE
:1026600065684BB3013BDBB204F10C024FF0030E83
:10267000264E254F04F1090C1EFB032E9CF8010089
:10268000B0B19CF802200CF101031344013853FA55
:1026900080F0624412F8011B01F00F03DB00090611
:1026A0004CBFDB199B1990421C6029685960F1D11D
:1026B0000CF1030CE645E1D10B238DF804302B68B7
:1026C000144801A9984704460028A8D004F08AFBC2
:1026D000A5E70324204603B0F0BD8528BED0FFF750
:1026E000C3FDBBE70A4BC3E900551D72B1E700BF4C
:1026F000FC0700202C000020812300001809002086
:10270000040900200809002068070020B007002005
:102710005C070020B485010010B504F0A5FE68B187
:1027200004F0AAFE044648B9064802F011FE03462A
:1027300028B1FFF799FD2346184610BD0823184617
:1027400010BD00BF5C85010004F056BB04F08EBCD8
:102750004FF0804303E0D3F83824D1072BD5D3F8CA
:1027600038249207F7D530B583B0134801A902F099
:1027700037FB0446E8B1114D28682060002002F0C4
:1027800027FA0F4B0F481B88026801339B1AE3801E
:10279000002102F0A9FBA080002002F021FA01A98B
:1027A000054802F04FFB084B1B6801460BB1284659
:1027B000984703B030BD70472C000020848501008D
:1027C000F8070020140900205C07002010B582B033
:1027D000822313488DF8003001A902F001FBE8B113
:1027E000044600982060002002F0F2F90D4B0E48DC
:1027F0001B88026801339B1AE380002102F074FBFE
:10280000A080002002F0ECF901A9054802F01AFBB3
:10281000064B1B6801460BB16846984702B010BDD5
:102820002C000020F8070020140900205C0700207D
:102830002DE9F041077A82B0002F51D07B1E00F1C4
:10284000090EDBB200F10C024FF003082D4D2E4EA5
:10285000714618FB03284C780022944201EB0203D6
:1028600015D091F802C013F80CC00CF00F031CF047
:10287000800F4FEAC30308D12B441B680132002BA1
:10288000EBD0112002B0BDE8F0813344F5E703310D
:102890008845E0D100241B4D1B4E224602EB42022C
:1028A00072445378C3B100210B4697781344013129
:1028B00013F807C00CF00F03DB001CF0800F14BFEF
:1028C0009B195B19186047683F685F6092F801C008
:1028D000CBB29C45E9D8077A0134E2B2BA42DDD3E3
:1028E0000A4A13681BB11A681368002BFBD11060E9
:1028F00043680B228DF804201B6801A9984702B099
:10290000BDE8F081B007002068070020040900201E
:10291000024B1878003818BF0120704710090020BA
:10292000030710B5044604D52046BDE8104004F066
:1029300007BF05F085F9204605F028F92046BDE8D7
:10294000104004F0FDBE00BF04F064BF014B1868E6
:10295000704700BF0409002030B50F4B1D68A5B1BA
:102960002C7AA4B100232A469C4603E05FFA83FC3C
:1029700064450CD992F809E0864503F1010302F1A0
:102980000302F3D109B181F800C0284630BD2B689D
:102990001D68002DE4D1F8E70409002043681146C2
:1029A0001B68184700F00F03082B0AD802064CBF1B
:1029B000054A064ADB001344186810B143681B68D7
:1029C00018471020704700BF68070020B00700209C
:1029D00038B5094B1C6864B1054602E023681C68E1
:1029E0003CB1636820461B68294698470628F5D005
:1029F00038BD062038BD00BF0409002038B50446A4
:102A00000D4604F08DFE18B1054B1B78022B01D04A
:102A1000082038BD29462046BDE8384004F0C6BF2E
:102A20001809002038B504460D4604F079FE18B1A7
:102A3000054B1B78022B01D0082038BD29462046C3
:102A4000BDE8384005F042B81809002070B5436869
:102A50009B6882B005460E46144623B19847062867
:102A600001D002B070BD4CBB2B7AB3422BD906EB20
:102A7000460109350D446E78EEB13246234606E034
:102A8000013404F05DFEE3B29E4214D96A789A42A2
:102A900016D9AB782A19D05C0307F1D4019005F060
:102AA000CFF8019805F072F80134019804F048FE5F
:102AB000E3B2B342EAD3002002B070BD0720D0E7F2
:102AC00000231B78FFDE6378FFDE00BF43681B69CD
:102AD00003B11847184670472DE9F0432E4BD3F841
:102AE000008083B0B8F1000F4CD098F80890B9F18D
:102AF000000F40D0002708F109053C4605E00137EA
:102B0000FCB2A14505F1030535D9D8F804309B681E
:102B10002BB100222146404698470628EFD198F86D
:102B20000830A34231D96E78002EE8D00024324616
:102B3000234606E0013404F003FEE3B29E42DED9F0
:102B40006A78934224D2AB782A19D05C0307F1D477
:102B5000019005F075F8019805F018F80134019816
:102B600004F0EEFDE3B2B342EAD30137FCB2A14573
:102B700005F10305C9D8D8F80030D3F80080B8F1C2
:102B8000000FB2D103B0BDE8F08300235B78FFDE15
:102B900000231B78FFDE00BF040900202DE9F84365
:102BA0001E4B1F68002F34D097F80890B9F1000F22
:102BB0002BD04FF0000807F1090544467B68DB681D
:102BC00013B12146384698473B7AA34223D96E7801
:102BD0009EB100243246234693420BD2AB782A1989
:102BE0000134D05C04F016FEE3B29E4205D96A7847
:102BF0009342F3D300231B78FFDE08F101085FFA4C
:102C000088F4A14505F10305D8D83B681F68002F5B
:102C1000CAD1BDE8F88300235B78FFDE04090020F9
:102C200070B503780446852B00F2BF80DFE813F00F
:102C3000F601A801BE0030025C02DC00E300BD002A
:102C4000FB000E012101BD00BD00BD00BD0034012F
:102C5000BD00BD00BD00BD00BD00BD00BD00BD008C
:102C6000BD00BD00BD00BD00BD00BD00BD00BD007C
:102C7000BD00BD00BD00BD00BD00BD00BD00BD006C
:102C8000BD00BD00BD00BD00BD00BD00BD00BD005C
:102C9000BD00BD00BD00BD00BD00BD00BD00BD004C
:102CA000BD00BD00BD00BD00BD00BD00BD00BD003C
:102CB000BD00BD00BD00BD00BD00BD00BD00BD002C
:102CC000BD00BD00BD00BD00BD00BD00BD00BD001C
:102CD000BD00BD00BD00BD00BD00BD00BD00BD000C
:102CE000BD00BD00BD00BD00BD00BD00BD00BD00FC
:102CF000BD00BD00BD00BD00BD00BD00BD00BD00EC
:102D0000BD00BD00BD00BD00BD00BD00BD00BD00DB
:102D1000BD00BD00BD00BD00BD00BD00BD00BD00CB
:102D2000BD00BD00BD00BD00BD00BD00BD00BD00BB
:102D30004801860057011202D901DC00874B8849FF
:102D4000D3E900029047874B1C684CB1844D6368FF
:102D500020461B682946984723681C68002CF6D13A
:102D6000814C63680BB10D209847FFF717FF01F006
:102D700067FB7E4B1B68002B00F0F98101207C4D26
:102D800004F06EFA2A78931EDBB2062B00F2118251
:102D90007849CB5C13B102F0ADFA2A78022A40F0F0
:102DA000088204F093FC01232B7070BD704D2A78CB
:102DB000931EDBB2062B40F2C381082A01D104F036
:102DC00085FC694B5B6803222A700BB1022098478F
:102DD000644B1D6845B16B6828461B6821469847BF
:102DE0002B681D68002DF6D15C4B2146D3E900020B
:102DF000BDE8704010478278110602F00F034CBF07
:102E00005D4A564ADB001344D3E90002214690474D
:102E10000028CAD0A0780207C7D00307C5D4BDE8F0
:102E2000704004F0A7BE504B5B680BB10820984778
:102E30004C4B1D68002DB8D06B6828461B68214696
:102E400098472B681D68002DF6D1AEE7464B5B68AE
:102E50000BB109209847434B1D68002DA5D06B6826
:102E600028461B68214698472B681D68002DF6D11F
:102E70009BE73D4B5B680BB10A209847394B1D68B7
:102E8000002D92D06B6828461B68214698472B6816
:102E90001D68002DF6D188E7334B5B680BB10F201E
:102EA0009847304B1D68002D3FF47FAF6B68284674
:102EB0001B68214698472B681D68002DF6D174E7E2
:102EC0002B4C2378062B00F0548103F0FD03052BD7
:102ED0007FF46BAF04F004FC0223237070BD244D1B
:102EE000FFF75CFE04F0E4F92A78931EDBB2062BB0
:102EF00031D82049CB5C13B102F0FCF92A78022AC0
:102F000029D104F0E3FB174A146800232B704CB15D
:102F10001A4E636820461B683146984723681C6830
:102F2000002CF6D10D4B1549D3E9000290470E4B0A
:102F30005B680BB10E2098472B78023BDBB2062B67
:102F40003FF633AF0B4AD35C002B3FF42EAFBDE806
:102F5000704002F0CFB9082AD5D1D2E7B0070020DF
:102F600080850100040900205C070020080900207A
:102F70001809002054850100680700207C850100A5
:102F80009D4DFFF70BFE01F051FA2A78931EDBB23C
:102F9000062B00F2DF809949CB5C002B00F0DA8031
:102FA000022A03D0082A01D004F09AFB944B5B68F4
:102FB00002222A700BB101209847924B2146D3E997
:102FC00000029047904B1D68002D3FF4EEAE6B68F9
:102FD00028461B68214698472B681D68002DF6D1AE
:102FE00070BD854D2B78032B00F0CC8004F034FBB2
:102FF00000283FF4DAAE2A78931EDBB2062B40F2AB
:10300000F180824802F048F92A78022A01D0082A81
:1030100001D104F05BFB06232B7070BD764B1B784F
:10302000032B00F0AB80082B00F0A880744B5B688A
:103030000BB100209847764B1D68002D3FF4B5AECC
:103040006B6828461B68214698472B685D68002DF1
:10305000F6D170BD684D2B78032B7FF4A6AE04F03B
:1030600015FA00283FF4A1AE2A78931EDBB2062B96
:1030700000F2D4806149CB5C13B102F03BF92A78AD
:10308000022A40F0CB8004F021FB04232B7070BD9A
:10309000594D2A78082A62D0931EDBB2062B00F223
:1030A0008C805649CB5C002B00F08780022A00F010
:1030B0008D8005232B70524B5B680BB10320984722
:1030C000504B2146D3E9000290474F4B1D68002D1D
:1030D0003FF46BAE6B6828461B68214698472B6807
:1030E0001D68002DF6D170BD454B5B680BB1032008
:1030F0009847444B4749D3E900029047424B1C682C
:103100004CB1444D636820461B68294698472368A4
:103110001C68002CF6D1384D2B78062B24D0082BB8
:103120000BD09A1ED2B2062A53D834498A5C002AA0
:103130004FD0022B01D004F0D3FA02232B7070BDC4
:103140002E49CB5C13B102F0D5F82A78022A3FF45D
:1031500036AE32E62D4802F09FF82A7820E70223A7
:103160002B7004F0C7FAA6E707232B7070BD207AF6
:1031700005E604F0B5FA0823237070BD2648FFF772
:103180004FFD53E704F082F900283FF42FAF2A786F
:10319000931EDBB2062B2BD81849CB5C13B102F07F
:1031A000A9F82A78022A23D104F090FA04232B707C
:1031B0001CE7082A7FF4F7ADF3E5144802F06CF839
:1031C0002B78022B02D0082B7FF473AF04F07EFA29
:1031D0006FE70E4802F060F82B78022BADD0082B79
:1031E000ABD0A8E70549CB5C002B7FF40EAF08E716
:1031F000082ADBD1D8E700BF180900205485010058
:103200005C070020B00700200409002024000020F3
:10321000080900207485010078850100082A7FF4E0
:1032200034AF30E770B5284E82B034680023019384
:103230000CB3A588A5B1E388B3F5006F3ABF5A1C5B
:1032400092B2012205F1FF3528BF002301A8E280D8
:10325000A580ADF80630FFF7E3FC012002B070BD99
:103260002046FFF7DDFC1949194801F02DFE012029
:10327000356002B070BD1549154801F0F3FD0446F4
:1032800030600028D5D1134B1B6813B9184602B023
:1032900070BD01F09DFC104A0E481388B3F5006F15
:1032A00039BF5D1CADB20125234601211580ADF863
:1032B000063001F03BFE002001F092FC01A8FFF770
:1032C000AFFC0120CAE700BF1C09002058070020FE
:1032D0002C00002014090020F80700204360CA6970
:1032E0009A4205D38A6902600B67CB610020704760
:1032F00001F1280202608B6700207047F0B5046876
:1033000091F808E0002C00F01184A4F2133CBCF109
:103310007C0F00F28280BCF17C0F7ED8DFE81CF0CD
:10332000C900DD02EC02A20283027C02BE02750229
:103330007D007D007D007D007D007D00AE032002CC
:103340007D007D007D007D006F03D30298027D002B
:103350007D007D0075035F0182007D007D007D00A2
:103360007D001A03F30282007D007D007D007D0058
:103370007D007D00BE037D007D007D007D005E033D
:1033800071010C03B70213037D007D00C502050324
:103390008A02E502A9027D007D000A021E03CC021A
:1033A0008D037D007D0091028703B002A803110206
:1033B0007D007D007D007D007D007D007D007D0025
:1033C0007D007D007D007D007D007D007D007D0015
:1033D0007D007D007D004E0340017D007D007D006D
:1033E0000A017D007D007D007D00A0037D007D0041
:1033F0007D007D0093037D007D007D007D007D00CC
:103400007D00720358017D007D007D007D00B800C5
:103410007D007D007D007D00B80000231A4603601A
:103420001046F0BD002A00F06784047915464FF07D
:10343000010C2C7000249C45047180F039830CF140
:10344000010412B1057902F80C50C14D91F814C075
:103450002D682E78B44500F02F83BE4E6D78357000
:10346000BD4E4FF0000C86F800C0AC45C0F01A838A
:10347000BA4D95F800C00CF1010C5FFA8CFCE645E2
:1034800085F800C000F2248340F29A330122C6E797
:10349000012400250AB106795655AF4EAD4D96F878
:1034A00000C02D780CF1010C5FFA8CFC86F800C08E
:1034B000DBE7002A00F0358404791470012B4FF00B
:1034C0000B04047140F27084032502260127D455B1
:1034D000B3420C7D047140F2A0839455AB424FF08F
:1034E0000204047140F28D836F1C5455BB424FF0AF
:1034F0000204047140F279837E1CD455B3424FF02C
:103500000204047140F25F83751C9455AB424E7EF9
:10351000067140F248836C1C5655A3424FF00005DB
:10352000057140F238831619013435708B4D4FF018
:10353000000CA4E7864C0125266800240AB107790F
:10354000175534780E7DA64200F0E4828E7DA642A7
:1035500000F081834024AB42047140F2B5826C1CC0
:10356000002A00F0CA8206795655A3424FF00005A2
:10357000057140F2B482161901343570744D0E7D18
:103580002D682D78AE4200F0AE828E7DAE4284D1A1
:103590000025A342057140F25D842546013479E798
:1035A000002A00F04C840579174601243D70684DCF
:1035B0002E68694D77782D78AF4240F25A84B778FB
:1035C0003544A342ED5D057140F21F83651CB5E7EC
:1035D000002A00F02684057916460124CDE7002A4A
:1035E00000F0FA8305794FF0010C0024155563456E
:1035F0004C7E047140F2288302EB0C050CF1010CA7
:1036000017E7002A00F0EA83047901264FF0000C46
:1036100002F80C409E424FF00004047180F0F982E1
:10362000751C9455AB424FF01004047140F2E182D6
:103630006E1C5455B3424FF00104047140F2C7822E
:1036400035199455AB424FF00504047140F2AF8236
:103650006E1C5455B3424FF02404047140F29F8213
:10366000751C9455AB424FF00104047140F28F82F7
:103670002E195455B3424FF00304047140F2838273
:10368000751C9455AB428E7D067140F278826C1C9D
:103690005655A3424FF00405057140F26C8216198D
:1036A00001343570A3424FF02405057140F25F826A
:1036B0002E46651C1655AB424FF00204047140F2D1
:1036C0005282264657196C1C0225A3423E70057192
:1036D00040F245822E46651C1655AB424FF005045C
:1036E000047140F23882264657196C1C2425A342E7
:1036F0003E70057140F22B822E46651C1655AB427A
:103700004FF00604047140F21E82561901353470E0
:103710000E7D0671AB4240F212826C1C5655A342DC
:103720008D7D057140F2FE81161901343570084D0A
:103730002D6892E6002A00F085830579164601245B
:10374000AFE7002A00F05983057916460124EDE71A
:10375000240900202009002022090020210900203E
:10376000002A00F0528304791646012534700E7A3F
:10377000B94C2478B44280F07F8304EB440401F117
:103780000906B64F16F804C080F804C02644AB42C0
:103790003E6040F26D826C1C002A00F04382067984
:1037A0005655A3424FF00005057140F22682AB4FFB
:1037B00004F1010C15553D6863456C78047140F2C5
:1037C000108202EB0C060CF1010C34702C780D7D8C
:1037D000A54200F0F0818D7DA5427FF42BAE0A2436
:1037E0006345047140F240830CF10104002A00F0AB
:1037F000E082057902F80C50A3424FF000050571F4
:1038000040F2CD8204F1010C84E0002A00F0048330
:1038100005791646012488E6002A00F00083047921
:103820000125002671E6002A00F0DF8204790126D6
:10383000002762E6002A00F00983047901260025AA
:1038400017E7002A00F0E4820679174601244DE7C5
:10385000824C2568002A00F0E982047916464FF070
:10386000010CB2E7002A00F0BB8204790127002591
:103870003BE6002A00F0E88206790124002507E7EC
:10388000002A00F0BE820479164601253FE7002A8F
:1038900000F0D382047901260025CAE6002A00F050
:1038A000A88206790124002536E6002A00F0D0829D
:1038B000047901260025CCE6002A00F0AB820679C7
:1038C0001746012400E7654F3D68002A00F0AC82EE
:1038D00005794FF0010C00246CE7002A00F0828289
:1038E0000479022501260027F1E5002A00F0A182D3
:1038F000047901250026C4E6002A00F080820479BC
:1039000001250026E9E5002A00F0718205794FF0D3
:10391000010C0024155563454FF0000404713FF677
:103920006BAE40F23633012279E5002A00F06B825B
:1039300004790125002694E6002A00F05C820479CF
:10394000012500266DE6002A00F075820479012524
:10395000002676E601244FF0000C47E701250024FD
:10396000002A40F0768102249D42047180F0FB80A1
:103970006C1C02259C42057180F0F180651C0524B9
:103980009D42047180F0E7806C1C24259C420571E7
:1039900080F0DD80651C06249D42047180F0D38098
:1039A00001350C7D04719D4280F0C9806C1C8D7DB9
:1039B00005719C4280F0B6800134B8E601260024EF
:1039C000002A00F0088105791555B3424FF005052E
:1039D000057140F29B809719741CE7E54FF0010CCC
:1039E0000024002A00F049810579155563454FF000
:1039F0002404047140F223810CF1010608E601243D
:103A00000025C9E601240025AAE501244FF0000C99
:103A1000002A00F0B681057902F80C50A3424FF05D
:103A20000205057140F2788104F1010CDEE5012503
:103A30000024002AAFD0067960E601250024002A80
:103A40009DD0067948E601250026002A3FF482AD84
:103A5000047994557EE500BF210900202409002047
:103A600001250024002A3FF475AD0679165571E54D
:103A700001240025002A9AD006794FE6012500246A
:103A8000002A00F03D8106791655AB424FF0040440
:103A9000047140F2E8805619013567E601244FF0C1
:103AA000000CCEE40725A34205712BD9661C87E7DD
:103AB00040F23D330122B2E40525A342057140F2F4
:103AC000268104F1010C8CE74FF461730122A6E416
:103AD0000925A342057140F24F81651CD0E740F2F1
:103AE000853301229BE40D6AA3422D7805713FF6D0
:103AF00054AD40F28A33012291E4A3420271EED91F
:103B000001343BE540F26E33012288E440F26F332A
:103B1000012284E40324AB42047140F253812C4619
:103B200001359FE740F25A33012278E408240471FA
:103B3000002B7FF4BEAC40F2133301226FE440F25D
:103B4000593301226BE44FF45673012267E440F2CB
:103B50005733012263E440F2563301225FE440F21E
:103B6000533301225BE440F25233012257E440F226
:103B70005133012253E44FF4547301224FE440F2D5
:103B80004D3301224BE44FF45373012247E440F2DA
:103B90004B33012243E440F21A3301223FE440F266
:103BA0004A3301223BE440F21933012237E440F268
:103BB0004933012233E402246345047140F2078152
:103BC0000CF1010424E74FF44673012227E440F28C
:103BD0004633012223E40524B342047196D9741CB0
:103BE000E5E440F22933012219E440F217330122BF
:103BF00015E440F24533012211E44FF44A730122E7
:103C00000DE440F21633012209E440F2733301223D
:103C100005E44FF45173012201E440F2153301220F
:103C2000FFF7FDBBA3420271E7D9964D2D68013421
:103C30006E780671A342D4D904F1010CC6E540F2B6
:103C400043330122FFF7EBBB40F22F330122FFF792
:103C5000E6BB06792EE50224AB42047140F2FF80F8
:103C60002E460135F1E640F222330122FFF7D7BBA1
:103C700040F227330122FFF7D2BB242463450471AD
:103C8000DDD90CF101040025A3420571C1D901342D
:103C90001025A3420571ACD901340125A342057159
:103CA00095D92C440525A342057180D901342425DA
:103CB000A34205717FF673AF01340125A34205715C
:103CC0007FF665AF2C440325A34205717FF65BAFF9
:103CD00001348D7D0571A3427FF651AF0134042577
:103CE000A34205717FF647AF013424259C4205713C
:103CF000BFF43DAF651C36E64FF0010CFFF79ABBF1
:103D00000424AB420471AED90E7A013530E540F29D
:103D100042330122FFF783BB40F22E330122FFF72B
:103D20007EBB0B24012B04713ED9032402250E7D9A
:103D30000671AB427FF671AF0225A34205717FF693
:103D400060AF01340225A34205717FF64EAF013406
:103D50000225A34205717FF636AF01344D7E057111
:103D6000A3427FF620AF01340025A34205717FF600
:103D700012AF0134FFF7DABB40F221330122FFF723
:103D80004EBB0225A3420571C6D901344D7E057193
:103D9000A3427FF659AF04F1010CFFF74BBB40F291
:103DA00035330122FFF73BBB4FF445730122FFF788
:103DB00036BBA3420271F2D901340025A34205713A
:103DC000E9D8AEE54FF45E730122FFF728BB40F25D
:103DD0002D330122FFF723BB0124D7E7012452E74B
:103DE0000124AFE702240125A1E70124B0E7012463
:103DF000E3E70124B8E701244AE7012497E401241A
:103E00009AE70125CDE5012457E776460125AFE481
:103E10000124BAE50124ACE50124FFF787BB0124A6
:103E20009CE70124FFF7AABB012401E74FF0010C36
:103E3000CCE401244DE7012434E701242DE70124DB
:103E4000FFF7B5BB012450E7012448E701243AE716
:103E500001242CE740F28F330122FFF7E0BA40F251
:103E60007D330122FFF7DBBA4FF44D730122FFF7D8
:103E7000D6BA00231B78FFDE024A002313601B78AA
:103E8000FFDE00BF2409002078B910B50446086899
:103E9000037B202B01D0062010BD00F10E0107226C
:103EA000183012F03DF8204610BD0320704700BFC7
:103EB0004360CA699A4210D38A6910B40260C86923
:103EC0000C6FC01A1A44C8612344003818BF01207F
:103ED0005DF8044B8A610B67704701F128020260AC
:103EE00000208B67704700BF2DE9F0470B7888B042
:103EF0000C4605460E2B15D8DFE803F0081D080810
:103F0000140D2D1414191408080808000024204664
:103F100008B0BDE8F0874B78D9094FEA531233D186
:103F2000012A4CD00624204608B0BDE8F087C369BA
:103F30000BB1032198472B68002403F1340220467B
:103F4000C3E91E44C3E920441C845C62DC625A67F6
:103F500008B0BDE8F087027A002A00F05D81837A1C
:103F60000930002B00F056818B78E97A415C994248
:103F7000CCD01B06E7781BD407F0FD03012BC5D07E
:103F8000002F3AD00324C2E712F003026BD0012ABB
:103F9000C8D1A378212BC5D1B4F80720072AC1D1F5
:103FA0000168601C183108B0BDE8F04700F052BA53
:103FB000002F78D0032F14BF03240024A7E7A37891
:103FC0000768202B78D0222BACD1B4F80760002EE4
:103FD000A8D1B4F803303A8C3B8402F0010203F01C
:103FE00001018A4292D0C269002900F0E280002AD1
:103FF0008CD002219047344689E72E68012A06F1C9
:104000000C0100F004816A7B012A05F10C0340F2E7
:10401000FC80AA7B06911344824A0592B46A93F805
:104020000180002C65D1F36FC6F88030F36AC6E9D1
:104030001E44002B00F0B68006F12C0393E8030029
:1040400006F1240383E803000023F36205A9404638
:10405000FEF7E8FC0446EB69002B3FF458AF002163
:104060002846984753E703F01F03012B7FF45AAF0C
:10407000A678062E7FF456AF05A8039200F036FD11
:1040800003AB00930746E278217928463B46FEF7CA
:1040900055FA05283FF446AF601C039A394600F0F4
:1040A000D9F9044633E7EB69002B3FF42FAF012128
:1040B000284698473C462AE7B4F80720072A7FF4A9
:1040C00031AF3B73B4F80730DBB27B7300200E379F
:1040D000CDE90573079000F07BFD05A90020FEF7F0
:1040E0008DFC0446002800F08880002000F078FD58
:1040F0000DE7D6F884A0706A544528BF544606F1EF
:1041000034092246494611F00BFF09EB0402AAEBE1
:104110000403C6E91D23F26FF7672244C6F8802026
:10412000F26A002A41D006F12C0797E8030006F155
:1041300024044FF0000984E80300C6F82C90D3B99A
:104140002AE011F0EDFEB26AB36FC6F880209B1A28
:10415000B367736F13447367EB6913B1002128468B
:104160009847F36A13B397E8030084E80300B36F3A
:10417000C6F82C9083B1D6E909029A42716FE0D952
:104180001A4611F0CDFEB26FB36AF2679B1AB362A2
:10419000736A1344736253B105A94046FEF742FCAB
:1041A000044658E70023736255E700237362002436
:1041B00051E70AB1032190472B7A012B2ED96B7B53
:1041C00005F10C0433B3AB7BE05C02F079FC2B7A95
:1041D000012B23D96B7B012B1BD9AB7B1C44607853
:1041E00002F06EFC002407F13403C7E91E44C7E95E
:1041F00020447C62FC627B6789E60B4B03A9CDE916
:10420000033500F05FFC04466FE73B78FFDE7B7808
:10421000FFDE00231B78FFDE5378FFDE00235B7890
:10422000FFDE00BFB13E0000893E00000368B3F826
:1042300020C01CF0010F18D00B46017A012918D9B3
:10424000417B00F10C0C91B110B5817B84B01CF85E
:10425000010091060CBF0124002401A9CDE901321F
:104260000394FEF7CBFB04B010BD082070470B7819
:10427000FFDE00235B78FFDE0368D3F88000704721
:1042800030B50468258CEB0783B033D5A56F0346A2
:104290000846EDB9616A11B1112003B030BDC4E91F
:1042A00009021A7A012A2AD9587B012803F10C0243
:1042B00023D99B7B134D13440C3458786946CDE9C0
:1042C0000054FEF7AFFB002808BF922003B030BDBA
:1042D000954228BF15462A46616F11F021FED4E9A8
:1042E0001D320020521B2B44C4E91D32C4F88050FB
:1042F00003B030BD082003B030BD0B78FFDE4B7833
:10430000FFDE00BFDD320000002070472DE9F04FD6
:1043100085B04B6801920C468346002B6DD003F0AC
:1043200025FCE568019B9D4228BF1D468146002D66
:1043300078D04FF0000A56464FF00108D4E9011337
:10434000AB421F4628BF2F463046ED1B3E44C1B14D
:104350003A46484411F0E4FD0022A3686260E26836
:10436000DB1BD71BA360E76013B3002F08BF4FF020
:104370000008002DE2D14046CBE9009605B0BDE82B
:10438000F08FA3B109EB000220463B4650F8101B0A
:10439000D1F804C0DCF804A0D047A368E268DB1BB6
:1043A000D71BA360E7605BB14FF0010ADDE7E76868
:1043B000BAF1000F04D15FB9B846002DBED1DAE7DB
:1043C00023681B681B6823604FF0010A002FF3D09D
:1043D0002168F1B10023029303E0A368216801334F
:1043E000A3604B6800225F6802A80123B847002839
:1043F000F3D12061002DA1D1BDE70B681B68D3F874
:104400000090B9F1000F8AD18E68002E87D1B04696
:10441000B1E76160002EAED0019BB34288BF4FF080
:104420000008A8E72E464FF00108A4E708B50020D1
:10443000FEF776FABDE808408020FEF771BA00BFAB
:1044400008B50020FEF780FABDE808408020FEF79E
:104450007BBA00BF70B5C38893421E4628BF16467C
:10446000934284B00D4612D8002400200394CDE975
:10447000015600F0ADFB01A98020FEF7BFFA04460B
:1044800088B1002000F0ACFB204604B070BD802055
:10449000144603F035F9B4FBF0F303FB1044B4FA0F
:1044A00084F46409E1E703F01FFC80280BD1094A7A
:1044B000094B92E8030083E80300002000F090FB22
:1044C000204604B070BD002000F08AFB1024204676
:1044D00004B070BDFC850100540900202DE9F04FA7
:1044E0000B780E2B89B00CD893B1013B0D2B0FD854
:1044F000DFE803F01D18130E2D420E0E0E0E185C91
:104500006B7A852B04D19E4B1A78032A00F0228106
:104510000625284609B0BDE8F08F9A4800F020FD36
:10452000002874D10025284609B0BDE8F08F944AD0
:104530001378032BECD0944994480B78032423F090
:10454000020314700B700625FEF76AFBE1E70523F2
:104550000DF109008DF8083003F082FB9DF8093059
:104560008B4C002203F01F052260032D00F2978080
:10457000DFE805F0C6977569C87803280C46C7D0F0
:10458000834E3368002B00F0E380002271683260B4
:104590009847054600285CD13368002B00F037812E
:1045A000A378002BBED103F081FBB2E7744A1378E5
:1045B000002BB7D0744975480B78002523F002030F
:1045C00015700B70FEF72CFBA3E74FF080426C4B8D
:1045D000D2F838141A78C90721D5022AA2D06A491C
:1045E0006A480A78022407E0654B1A78012A99D0B4
:1045F000654966480A78012422F002021C700A709C
:10460000FEF70EFB0025284609B0BDE8F08F614B90
:104610000122DA65BFF36F8FBFF34F8F82E7012A64
:10462000E6D17FE7564A1278052A02D0042A0AD139
:104630002B46594901220DF109000B70FFF70AFFC3
:104640000546062D03D102A8FEF7C2F90546002D46
:1046500075D003F03FFB284609B0BDE8F08F9DF808
:104660000D00050707D002A9FEF79CF906280546AC
:10467000EDD19DF8093013F0600FC3F341160ED150
:104680009DF80A303E4A9DF80D501278012B00F03B
:10469000D480032B00F0C080002B00F0E2800625C0
:1046A000D7E79DF80D0005A9FEF756F90646002844
:1046B00063D09DF8141002AAFEF770F9062805468B
:1046C000C5D19DF809209DF8141012F0600FC0D1DB
:1046D0002B4BD20918789DF80A3040F09E810B2BA5
:1046E000B7D1052840F09680BDF80B30FF2B00F2C3
:1046F00075819DF80B203046FEF7A8F90546A6E720
:1047000013F0600FC3F341189DD1DB099DF80A1027
:1047100044D1032900F0C980092900F0D68001297D
:1047200091D1BDF80B30012B8DD1FEF7F1F80028A7
:1047300000F05281144A137823F0020313702368A7
:10474000A3B103F0D1FA054600287FF4EBAE2AE7C7
:104750000E257EE70C490D480A78042422F0020257
:104760001C700A700625FEF75BFAD2E603F0A8FA81
:104770000025CEE6284600F033FA102569E700BF91
:10478000340900205C09002050090020C485010084
:10479000540900200070024060090020062900F042
:1047A000AC8008293FF43EAF00297FF44CAFBC4FEA
:1047B0000222384611F0C2FBBA4A3B7812789207BF
:1047C00043F0010148BF43F00303397048BF3B7019
:1047D000BDF80F30022B1D4628BF0225022B00F228
:1047E000318100230020CDE90575079300F0F0F931
:1047F00005A98020FEF702F90546002800F0DE80BA
:10480000002000F0EDF9062D7FF423AF1BE703F045
:1048100057FA7EE608251CE72B073FF540AFBDF8A9
:104820000B30002B7FF43BAF2F073FF438AF052A46
:10483000F0D1284603F09EF981E72E073FF52FAF10
:10484000BDF80B30002B7FF42AAF28073FF427AFC9
:10485000052ADFD1284603F0F3F9284603F096F93C
:104860006DE7052A01D02907D4D1284603F0C6F9FF
:10487000BDF80F308A4F022B1D4628BF0225022BA0
:10488000388000F2BE800020CDE90575079600F063
:104890009FF905A98020FEF7B1F80546002800F031
:1048A0008D80002000F09CF9D3E6BDF80B30012B81
:1048B0007FF4C9AEFEF72CF8002800F08D80794A0D
:1048C000137843F00203137039E7774D2B78043BDC
:1048D000012B9FD89DF80B30002B00F08180012B1D
:1048E0007CD1FEF7F9F82B78052B3FF428AF052390
:1048F0006E482B70FEF794F921E79DF80C30022BDF
:1049000012D0032B00F0AA80012B7FF49CAEBDF8DF
:104910000F30002B3FF42AAF654912220DF1090038
:10492000FFF798FD05468CE6BDF80F30002B3FF4ED
:104930001DAF092B28BF09239946FEF707F84FF052
:10494000090A0646B0B1CDF81480002700E001370F
:1049500072680123D2F804B03146002205A8D84776
:104960000028F4D13268337A16682B44BA44DDB299
:10497000002EE8D14A4F4F494A46384611F0D0FA46
:104980003D71A7F802A0FDF7C3FF18B1FB7943F012
:104990002003FB71FDF7DAFF474B1860BDF80F20CD
:1049A000DA600020C3E9017900F012F94349802060
:1049B000FEF738F8054600287FF422AF03F094F99B
:1049C00080287FF4D7AE3E4B93E8030084E80300D1
:1049D000284600F005F9B2E60F253AE6072538E645
:1049E000FEF7DCF82B78042B3FF4A9AE2D4A2F48B4
:1049F0001378042123F0020329701370FEF710F9D5
:104A00009DE6802002F07CFE0223B3FBF0F303FB63
:104A100000F0821E5642564135E7ABB30A2B7FF4B5
:104A200018AE05287FF4F6AE30460192FEF74EF838
:104A30001B49019A03460B700DF10900FFF70AFDAF
:104A4000054604E6802002F05BFE0223B3FBF0F390
:104A500000FB03F39E1E73427341C3E6BDF80F30A3
:104A6000002B3FF483AEBDF80D109DF80B0000F055
:104A70006DF8014600283FF4E6AD02780DF109001B
:104A8000FFF7E8FC0546DCE505287FF4C3AE0449E2
:104A900002220DF109000B80FFF7DCFC0546D6E58C
:104AA000600900205009002034090020C48501005D
:104AB000E8850100C885010038090020048601004E
:104AC000FC85010038B505460C4603F00DF9A842F7
:104AD00007D194E80300044A82E803000023184643
:104AE00038BD1023184638BD5409002008B14023B2
:104AF00003600148704700BF6009002070B54FF0A7
:104B0000805286B0D2F8A830D2F8A41000916FEA93
:104B100083436FEA93430B4A0B4E9BB20D2102A8CD
:104B200011F00EFB02AD002404E015F8013B06F87D
:104B3000013B013402A811F041FB8442F5D306B0D9
:104B400070BD00BF0C860100A009002090B30128B1
:104B500009D0022807D0032805D0042803D005284F
:104B600001D000207047174B03EB4003587840B347
:104B7000154B10B553F82040F4B123780BB9A01CA5
:104B800010BD0020FFF7B2FF2178B9B12246C4F171
:104B9000010C02EB0C03DCB2234620F8141012F8CF
:104BA000011F0029F5D101335B00DBB243F44073F0
:104BB000038010BD05487047204610BD40F2023307
:104BC000F6E77047748601005C8601001A860100D2
:104BD00072B6024A1368013313607047B0090020AF
:104BE000034A1368013B136003B962B6704700BF04
:104BF000B00900201EF0040F1CBFEFF309800AE08B
:104C0000EFF308800549064A884201D8904202D84D
:104C10008D464FF00000034B1847000000000420B1
:104C200000E003204D4C0000BFF34F8F0549064BB9
:104C3000CA6802F4E0621343CB60BFF34F8F00BF3A
:104C4000FDE700BF00ED00E00400FA052DE9F04F9C
:104C500083B08146FDF74AFAFCF75AFF0028FBD1E2
:104C6000464B4749474ADFF84081956AA3EB010A62
:104C70004FEADA0A4FEA0A4AB8F802304AF0010A63
:104C8000B9F1000F72D0002B40D13E4BDB6A3E4F92
:104C9000DFF818B10024012602E001341A2C12D0EA
:104CA00006FA04F32B42F8D057F82420002AF4D057
:104CB000B8F80230002BF0D0594650460134FDF7C9
:104CC00057F91A2CECD12A060ED5B8F802302BB9B8
:104CD0004846FFF7A9FF03B0BDE8F08F294B2B49E9
:104CE0005A6B5046FDF744F92B04F1D5B8F8023061
:104CF000002BEDD0234B26499A6B5046FDF738F92F
:104D00004846FFF791FF03B0BDE8F08FD9F81820AF
:104D100020495046FDF72CF9B8F80230002BB4D0EA
:104D2000D9F80C300193D9F808300093D9E9002361
:104D300019495046FDF72CF8B8F80230002BA4D0E2
:104D4000D9F81C300093D9E9042314495046FDF7E3
:104D50009BF80C4BDB6A990799D5B8F80230002B09
:104D600095D00F495046FDF767F990E7002B8CD09E
:104D70000C495046FDF760F9EBE700BF28B301008E
:104D800080B2010000ED00E0988C01007C870100FA
:104D90009C8701008086010098860100D086010072
:104DA0002C870100F886010058010020708701005F
:104DB00099B110B4B2FBF3F403FB1424A4B244B9C8
:104DC000C0E9001484608281C38120465DF8044BF1
:104DD000704709205DF8044B70470E20704700BFF4
:104DE00010B483B050E8013F1FFA83FCC489A44487
:104DF0008489A44528BFACEB040C0489A44502BFF8
:104E0000BFF32F8F002207E0CCEA030C40E801C477
:104E1000002CE7D14FF001028DF803200193019C93
:104E20009DF803200C6032B1006810FA84F003B0E2
:104E30005DF8044B704702F0FF03184603B05DF8BD
:104E4000044B70470A884B889A4201D00020704773
:104E500050E8012FC2EA024240E80123002BF7D1BB
:104E60000120704710B483B050E8023F1FFAA3FC42
:104E7000C488A44502BFBFF32F8F00220EE0C4896F
:104E8000A4448489A44528BFACEB040CC3EA0C4CB1
:104E900040E802C4002CE7D14FF001028DF8032056
:104EA0000193019C9DF803200C6032B1006800EB77
:104EB000144003B05DF8044B704702F0FF0318463E
:104EC00003B05DF8044B70470A884B889A4201D0C2
:104ED0000020704750E8022FC2EA224240E8022335
:104EE000002BF7D101207047034653E8000F0A4614
:104EF00043E8002C9CF0000FF7D17047034653E8BD
:104F0000002F02EB010043E8000C9CF0000FF6D1EB
:104F1000704700BF034653E8002FA2EB010043E8AF
:104F2000000C9CF0000FF6D1704700BF034653E819
:104F3000002F8A422CBF501A104643E8000C9CF008
:104F4000000FF4D1704700BF0346012253E8001F51
:104F500041EA020043E8000C9CF0000FF6D17047D4
:104F60000346002253E8000F00EA020143E8001C58
:104F70009CF0000FF6D1704738B504460020FFF7CB
:104F800027FED4E900311A688A4215D9511E1960EA
:104F90002168A36812F8012C208B0D68E4685B1B64
:104FA00000FB02440A79DBB29A4200D20B71002066
:104FB000FFF716FE204638BD00240020FFF710FE44
:104FC000204638BD38B5054600200C46FFF700FEE8
:104FD0002A681368591C1160E9682A8B641AB4FBAB
:104FE000F2F41C70BDE838400020FFF7F9BD00BFA7
:104FF0002DE9F041058B0331043D4E198046B6FB87
:10500000F5F6FFF7B9FFA0B3F6B24FF48073013E97
:1050100004468380C580C0F800802BD0034600255D
:1050200008E06279AE4202F1010262713860C0F8B4
:1050300000801FD040461F46FFF79EFF0135034604
:105040000028EED167792668791E16D022460133F2
:1050500099421268FBD1D2F8008057B1002501E0D7
:1050600034463668214640460135FFF7ABFFAF4274
:10507000F6D800242046BDE8F08121463046FFF7EF
:10508000A1FFF6E701210430FFF738BF2DE9F04119
:10509000012104460430FFF73DFF10F0FF0301D06B
:1050A000BDE8F08167792668791E15D02246013364
:1050B00099421268FBD1D2F80080002FF0D0002571
:1050C00001E034463668214640460135FFF77AFF55
:1050D000AF42F6D8BDE8F08121463046BDE8F04148
:1050E000FFF770BF2DE9F8438846C788417907FB71
:1050F00001F1043902EB030C1E1D6145154638BF52
:10510000CD1AB7420446B6FBF7F207FB126002D88D
:10511000013A2468FCD13E1AAE4228BF2E469DB10A
:105120004FF000090430AD1B324608EB0901204462
:1051300010F0F6FEAF42B14424683E464FF0000046
:1051400028BF2E46002DEDD1BDE8F88370B5446828
:10515000064620680D4618B908E02468206828B182
:10516000B368294698470028F7D120682860256051
:1051700070BD00BF4368186808B102681A607047C4
:1051800043681868704700BF4368186818B908E09A
:105190000346006828B18142FAD10A681A600120EA
:1051A0007047704710B568B90E4CA3680122627051
:1051B0003BB1D3E900230020A2609847A368002BED
:1051C000F7D110BD0128FCD1064C2369A070002B3B
:1051D000F7D0D3E900230120226198472369002BEF
:1051E000F7D110BDB409002010B50D4C237882B062
:1051F00043B185200B4BD3F800340BB10123A370CE
:1052000002B010BD08486360A3602361E36000F052
:10521000BBF8019000F0C4F8012301982370E9E77E
:10522000B409002000000140A551000038B5154D1B
:10523000AB78044673B110B1436801209847002051
:10524000FFF7C6FCEB680133EB600020BDE8384097
:10525000FFF7C6BC03F0FF00FFF7BAFC64B12A6990
:1052600042B1944208D0134601E09C4204D01B682E
:10527000002BFAD122602C61EB68002BE2D100F008
:10528000A5F8DFE7B40900204FF08043D3F81804F5
:10529000C0F30040704700BF38B5154D6B78044629
:1052A00073B110B14368002098470020FFF790FCCD
:1052B0006B6801336B600020BDE83840FFF790BC9D
:1052C00003F0FF00FFF784FC64B1AA6842B1944286
:1052D00008D0134601E09C4204D01B68002BFAD191
:1052E0002260AC606B68002BE2D100F081F8DFE750
:1052F000B409002038B50B4C0020FFF769FC636847
:10530000013B6360656825B1BDE838400020FFF7C8
:1053100067BC00F07DF865700020BDE83840FFF7FD
:105320005FBC00BFB409002010B5074C23784BB90F
:10533000064B002808BF184600F046FB08B90123B9
:10534000237010BD852010BDC80900202C8D0100E0
:1053500000B583B0019000F067FB00F06DFB019891
:1053600000F054FB00F058FB002003B05DF804FB94
:10537000034653E8000F00EA010243E8002C9CF0CA
:10538000000FF6D1704700BF044A137923B90121F9
:10539000106091801846704785207047CC09002026
:1053A000084B1A68D20704D4C02283F800230122D4
:1053B0001A60054A4FF080410123C1F81835137077
:1053C000704700BF00E100E0D40900204FF08043A7
:1053D0000022C3F8042182B0D3F80421019201987D
:1053E00002210122C3F804139A6002B0704700BF83
:1053F0004FF080430022C3F8002182B0D3F800218F
:10540000019201990122C3F804231A6002B0704787
:105410004FF0804201230021C2F8083382B0C2F865
:105420000011D2F80011019101995360D2F80C34A7
:1054300003F00113B3F1011FF8D0024B00225A719F
:1054400002B07047CC09002010B54FF0804382B005
:10545000D3F8002162B10021164AC3F80011D3F835
:105460000011507900910121009CC3F80813A8B1E4
:105470004FF08043D3F80421CAB10022C3F80421BD
:10548000D3F80421019202210A4A0198C3F80813B3
:105490001368012002B0BDE810401847136851712D
:1054A00098474FF08043D3F80421002AE5D102B099
:1054B00010BD00BFCC0900202DE9F047002384B0C7
:1054C000CDE902331C4AD2F80011012900F03082E4
:1054D0001E46194BD3F80421012A00F01A82164BFC
:1054E000D3F80821012A00F00582134BD3F80C21D0
:1054F000012A00F0F081104BD3F81021012A00F0AE
:10550000DB810D4BD3F81421012A00F0C1810A4B35
:10551000D3F81821012A00F0AC81074BD3F81C21E5
:10552000012A0BD0044BD3F87C21012A00F0218200
:1055300056BB04B0BDE8F08700600040D3F80423F8
:105540001206EFD50022C3F81C21D3F81C110091DC
:10555000D3F87C110098012946F0800614D1C3F8D5
:105560007C21D3F87C3101934FF0A042019BD2F80B
:105570002015CF4B0291C2F82015D3F820250392B5
:10558000C3F8202546F00046CA4F00240125A30099
:1055900003F18043354203F5C0434FEA45050BD084
:1055A000D3F8100557F82420D3F81015C0F30520C0
:1055B000C1F3014102B190470134082CE7D1002E1C
:1055C000B7DABC4CBA4E01254FF0A04794F9600001
:1055D000431C48D0C0F3C20202F110030DEB0302DA
:1055E00000F0070312F8082C05FA03F31A42C1B2BF
:1055F00000F03F0037D01F2800F22B8102464FF009
:10560000A04909EB820305FA02F2D3F800C7D3F8E8
:1056100000E72EF4403EC3F800E704EB000ECCF3A5
:10562000014C9EF930E0D3F800A754F82E80BCF16D
:10563000020F0CBF4FF4403E4FF4003E4EEA0A0EFC
:10564000C3F800E7C9F82025B8F1000F0BD089098D
:10565000032900F08281BCF1020F00F07B81BCF1D4
:10566000030F00F0A68194F96100411C48D0C0F3FB
:10567000C20202F110030DEB030200F0070312F85F
:10568000082C05FA03F31A42C1B200F03F0037D0EC
:105690001F2800F2E28002464FF0A04909EB820386
:1056A00005FA02F2D3F800C7D3F800E72EF4403E23
:1056B000C3F800E704EB000ECCF3014C9EF930E098
:1056C000D3F800A754F82E80BCF1020F0CBF4FF4A2
:1056D000403E4FF4003E4EEA0A0EC3F800E7C9F818
:1056E0002025B8F1000F0BD08909032900F03A8179
:1056F000BCF1020F00F03381BCF1030F00F05D81BB
:1057000094F96200421C48D0C0F3C20202F11003B7
:105710000DEB030200F0070312F8082C05FA03F35F
:105720001A42C1B200F03F0037D01F2800F2998022
:1057300002464FF0A04909EB820305FA02F2D3F8C2
:1057400000C7D3F800E72EF4403EC3F800E704EBAF
:10575000000ECCF3014C9EF930E0D3F800A754F8CA
:105760002E80BCF1020F0CBF4FF4403E4FF4003EC0
:105770004EEA0A0EC3F800E7C9F82025B8F1000F79
:105780000BD08909032900F0F280BCF1020F00F070
:10579000EB80BCF1030F00F0088194F96300431C17
:1057A00047D0C0F3C20202F110030DEB030200F078
:1057B000070312F8082C05FA03F31A42C1B200F0ED
:1057C0003F0036D01F2850D802464FF0A04909EBC1
:1057D000820305FA02F2D3F800C7D3F800E72EF4EB
:1057E000403EC3F800E704EB000ECCF3014C9EF9F9
:1057F00030E0D3F800A754F82E80BCF1020F0CBFA4
:105800004FF4403E4FF4003E4EEA0A0EC3F800E764
:10581000C9F82025B8F1000F0BD08909032900F041
:105820009780BCF1020F00F09080BCF1030F00F0F4
:10583000B880D7F820350293C7F82035D6F8202550
:1058400003921343C6F820257FF4C0AE04B0BDE830
:10585000F08701F01F02B146D3E601F01F02B14606
:105860001CE701F01F02B14665E701F01F02B146D7
:10587000ADE7D3F8042351067FF54FAE0022C3F8FD
:105880001821D3F818310093009B46F0400644E6F7
:10589000D3F8042390067FF53AAE0022C3F8142112
:1058A000D3F814310093009B46F020062FE600BF8A
:1058B00000030050D8090020D3F80423D4067FF554
:1058C00020AE0022C3F81021D3F810310093009BC2
:1058D00046F0100615E6D3F8042315077FF50BAE46
:1058E0000022C3F80C21D3F80C310093009B46F042
:1058F000080600E6D3F8042357077FF5F6AD00222B
:10590000C3F80821D3F808310093009B46F0040641
:10591000EBE5D3F8042392077FF5E1AD0022C3F84D
:105920000421D3F804310093009B46F00206D6E52B
:10593000D2F8046316F001063FF4CBADC2F8003193
:10594000D2F800310093009BC3E501297FF471AFC9
:10595000C0476EE701297FF486AEC04783E6012980
:105960007FF4CEAEC047CBE601297FF416AFC04727
:1059700013E70022C3F87C21D3F87C3101934FF068
:10598000A042019BD2F820150E4B0291C2F82015BF
:10599000D3F820250392C3F82025002E3FF411AE42
:1059A000F0E502297FF445AFD2E702297FF4F5AE96
:1059B000DDE702297FF457AECFE702297FF4A0AEDE
:1059C000D0E700BF000300500E4A1378C3B9037834
:1059D0000D494FF0804CC3F34003CCF88035037879
:1059E00003F00103CCF878350B68DB0704D4C0233F
:1059F00081F8003301230B600123137000207047EE
:105A000085207047500A002000E100E0014B026849
:105A10001A6070474C0A00204FF080434FF46072C8
:105A2000C3F80423704700BF4FF080434FF4607207
:105A3000C3F80823704700BF014B00221A6070476B
:105A40004C0A002010B54FF0804386B0D3F80443D1
:105A5000620703D5D3F80821002A62D1A30605D531
:105A60004FF08043D3F81421002A4FD1600605D5AA
:105A70004FF08043D3F81821002A3BD1210604D5EA
:105A80004FF08043D3F81C214ABBE20504D54FF008
:105A90008043D3F82021B2B9A30512D54FF080433B
:105AA000D3F824216AB10022C3F82421D3F8242199
:105AB000214B0592059A1B68022006B0BDE81040F4
:105AC000184706B010BD0022C3F820211A4AD3F8A7
:105AD0002031049301201368049A9847DCE70020E2
:105AE000C3F81C01144AD3F81C3103931368039ABA
:105AF0009847CAE70022C3F81821104AD3F8183192
:105B0000029301201368029A9847B7E70020C3F870
:105B100014010A4AD3F8143101931368019A984783
:105B2000A4E70022C3F80821054AD3F808310093FE
:105B30001368009A984791E74C0A0020480A002011
:105B4000440A002008B5FFF77DFFBDE80840FFF7D5
:105B50007BBC00BF014B1B68184700BF540A0020E4
:105B600030B44C68A34208D900254560096801603B
:105B700093420CD0002030BC704743600D68056034
:105B80000868E41A184493424C600860F2D1201E61
:105B900018BF012030BC704710B4D1E90034A242D4
:105BA00028BF2246C0E90032D1E90030801A1344F0
:105BB000C1E90030003818BF01205DF8044B704780
:105BC0004B689A4228BF1A4662B10B68C0E900329E
:105BD000D1E90030801A1344C1E90030101E18BF0B
:105BE000012070471346F1E710B50748074A0849F6
:105BF000126882B0002301240370019401A80B7085
:105C0000904702B010BD00BF5C0A0020600C00206D
:105C1000640C0020704700BF00B583B00D4B0E49E7
:105C200000228DF80420D3F82025ADF80620D3F803
:105C3000C0040A4A0968136800280CBF4FF480703A
:105C40004FF00120034301A81360884703B05DF8BB
:105C500004FB00BF00700240600C00203C0B0020E1
:105C6000F8B54B680B4F9A4228BF1A4615460C46AA
:105C700006460968384610F053F9C6E90075D4E9BC
:105C80000030401B2B44C4E90030003818BF01200D
:105C9000F8BD00BF680C002070B54B689A4228BF61
:105CA0001A460D461446064662B91346C6E9003444
:105CB000D5E90032121B2344C5E90032201E18BF6B
:105CC000012070BD0968024810F02AF9004BEDE789
:105CD000680C00204FF08053D3F83031082B03D1EB
:105CE000164B0022C3F81C2C154B16499A7B00203A
:105CF000032A08700CD010B51C6882B06CB10F4B31
:105D00000122DA64BFF36F8FBFF34F8F02B010BD73
:105D10000D486FF48031FFF72BBB6FF480310A48D8
:105D2000FFF726FB094BADF8064006221B688DF8ED
:105D3000042001A8984702B010BD00BF00700240C7
:105D4000400B00205D0A0020CC0A0020600C0020DF
:105D500010B51E4BD3F80044C3F8004482B0BFF323
:105D60006F8FBFF34F8FBFF36F8FBFF34F8FE1057F
:105D700008D5174B174A1B6802200121019001A882
:105D800011709847A20508D5114B124A1B680320D1
:105D90000021019001A811709847630514D50D4B9F
:105DA0001A788AB1094A012100201870C2F8081532
:105DB0009165BFF36F8FBFF34F8F054B04221B68B4
:105DC00001920DEB0200984702B010BD0070024036
:105DD000600C00205C0A002030B53C4B3C491C782C
:105DE0000A68200683B004F00F0316D41033012094
:105DF00000FA03F31A430A60364A126813420AD1C2
:105E0000354B8DF8070006221B688DF804208DF8AD
:105E1000064001A8984703B030BD01259D402A43A4
:105E20000A602E491AB231F8133003F1804303F5AA
:105E30001C331968E1B100211960BFF36F8FBFF304
:105E40004F8F4FF08053802CD3F8303121D0082B66
:105E500004BF234BC3F81C1C224B00211970224B9A
:105E6000110103EB0212927B032A2AD05B5843B341
:105E7000184B1B682B40CED1174A8DF806400621DF
:105E800012688DF804108DF8073001A8904703B010
:105E900030BD082B08BF124B124A08BFC3F81C1CA8
:105EA000124B0021117093F89E20032A03D0D3F8DF
:105EB0009030002BDCD16FF001010648FFF758FA53
:105EC000D6E7E9430348FFF753FAD1E7640C002013
:105ED0003C0B0020CC0A0020600C0020708D0100DB
:105EE000007002405D0A0020D00B0020400B002013
:105EF0002DE9F04FDFF818A2DFF81892DAF8004029
:105F0000D9F80030234089B000F0938013F00122CB
:105F100000F0928092FAA2F4002C00F09280B4FA81
:105F200084F201239340DB430F2A1546019317D8CF
:105F3000DFF8E4A10FFA82F80AEB08164FEA081816
:105F400062F07F075AF80830B289716806A898474E
:105F50007FB22C4605F0080B38BB4AF8080024E055
:105F6000A2F1100B644B5FFA8BF21BF0080B03924B
:105F7000144603EB02164FFA82F86CD115465F4ABD
:105F800005F594734FF0000B52F82330B289716815
:105F90003768029306A8B847069A1AB1079A029B77
:105FA000934266D8474600B930604FF08053D3F82B
:105FB0003031082B03D1514B8222C3F81C2CD9F865
:105FC0000030019A1340C9F80030079AB3681344AF
:105FD000B3604B4B0121002F1970069963DBBBF1B5
:105FE000000F6BD0454BAD00C3F8A017C3F8A42732
:105FF00028232B44DBB203F1804303F51C33012239
:106000001A60BFF36F8FBFF34F8F3E4A3E4B3B4941
:1060100013EA270338BF134633F8142002F18042F5
:1060200002F51C3202E0D1F8003113B91368002BDD
:10603000F9D009B0BDE8F08F93FAA3F4002C7FF4F7
:106040006EAF4FF010084FF0FF332B4E01932546F3
:10605000CDF80C8093E7294BD3F8C034D90349D548
:106060003568B289716806A80023A84747462546C7
:1060700099E702240199B4735046FFF779F9039B1D
:106080008DF81630214B8DF8174006221B688DF8CD
:10609000142005A89847DAF80040D9F800302340CA
:1060A0007FF434AFC5E7BBF1000F15D0134BAD0043
:1060B000C3F8A016C3F8A42604239AE705EB8503CA
:1060C0009B0003F1804303F51C33AD00C3F80017B8
:1060D000C3F8042728238CE705EB85039B0003F115
:1060E000804303F51C33AD00C3F80016C3F8042643
:1060F00004237EE7154649E7400B0020007002406C
:106100005D0A0020908D0100708D0100600C002060
:10611000CC0A00203C0B0020D00B002010B54FF023
:10612000805382B0D3F83031082B03D1164B0022B4
:10613000C3F81C2C154B164C93F83E200021032A63
:10614000217006D01B6B73B102B0BDE81040FFF7A1
:10615000CFBE10486FF40021FFF70AF92378002B17
:10616000F2D002B010BD6FF400210A48FFF700F929
:10617000094B062103221B688DF80410ADF8062098
:1061800001A89847EAE700BF00700240400B0020DA
:106190005D0A0020CC0A0020600C00204FF08053E4
:1061A000D3F83031082B03D1114B0022C3F81C2C3B
:1061B000104B114993F88E200020032A087002D05A
:1061C000D3F8803003B1704700B56FF0807183B0B1
:1061D0000A48FFF7CDF80A4B062108221B688DF804
:1061E0000410ADF8062001A8984703B05DF804FB41
:1061F00000700240400B00205D0A0020CC0A002005
:10620000600C00204FF08053D3F83031082B03D1BD
:10621000144B0022C3F81C2C134B144993F81E2175
:106220000020032A087003D0D3F810312BB1704737
:106230000F486FF48071FFF79BB800B56FF4807161
:1062400083B00B48FFF794F80A4B062188221B689D
:106250008DF80410ADF8062001A8984703B05DF84A
:1062600004FB00BF00700240400B00205D0A0020CC
:10627000CC0A0020600C00204FF08053D3F830315E
:10628000082B03D10A4B0022C3F81C2C094B0A49E6
:1062900093F89E200020032A087003D0D3F8903092
:1062A00003B1704705486FF00101FFF761B800BF07
:1062B00000700240400B00205D0A0020CC0A002044
:1062C0004FF08053D3F83031082B03D10A4B002212
:1062D000C3F81C2C094B0A4993F8AE200020032A6E
:1062E000087003D0D3F8A03003B1704705486FF0B1
:1062F0000201FFF73DB800BF00700240400B0020D4
:106300005D0A0020CC0A00204FF08053D3F83031D2
:10631000082B03D10A4B0022C3F81C2C094B0A4955
:1063200093F8BE200020032A087003D0D3F8B030C1
:1063300003B1704705486FF00401FFF719B800BFBB
:1063400000700240400B00205D0A0020CC0A0020B3
:106350004FF08053D3F83031082B03D10A4B002281
:10636000C3F81C2C094B0A4993F8CE200020032ABD
:10637000087003D0D3F8C03003B1704705486FF000
:106380000801FEF7F5BF00BF00700240400B00207F
:106390005D0A0020CC0A00204FF08053D3F8303142
:1063A000082B03D10A4B0022C3F81C2C094B0A49C5
:1063B00093F8DE200020032A087003D0D3F8D030F1
:1063C00003B1704705486FF01001FEF7D1BF00BF61
:1063D00000700240400B00205D0A0020CC0A002023
:1063E0004FF08053D3F83031082B03D10A4B0022F1
:1063F000C3F81C2C094B0A4993F80E210020032AEC
:10640000087003D0D3F8003103B1704705486FF02E
:106410008001FEF7ADBF00BF00700240400B0020BE
:106420005D0A0020CC0A00204FF08053D3F83031B1
:10643000082B03D10A4B0022C3F81C2C094B0A4934
:1064400093F8EE200020032A087003D0D3F8E03040
:1064500003B1704705486FF02001FEF789BF00BF08
:1064600000700240400B00205D0A0020CC0A002092
:106470004FF08053D3F83031082B03D10A4B002260
:10648000C3F81C2C094B0A4993F8FE200020032A6C
:10649000087003D0D3F8F03003B1704705486FF0AF
:1064A0004001FEF765BF00BF00700240400B0020B6
:1064B0005D0A0020CC0A002010B54FF0805382B056
:1064C000D3F83031082B03D1154B0022C3F81C2C14
:1064D000144B154C9A7F0021032A217006D01B69AA
:1064E00073B102B0BDE81040FFF702BD0F486FF472
:1064F0000031FEF73DFF2378002BF2D002B010BD33
:106500006FF400310948FEF733FF094B06210122E1
:106510001B688DF80410ADF8062001A89847EAE73B
:1065200000700240400B00205D0A0020CC0A0020D1
:10653000600C002010B54FF0805382B0D3F830319A
:10654000082B03D1164B0022C3F81C2C154B164CFC
:1065500093F84E200021032A217006D01B6C73B1E2
:1065600002B0BDE81040FFF7C3BC10486FF48011C3
:10657000FEF7FEFE2378002BF2D002B010BD6FF4C0
:1065800080110A48FEF7F4FE094B042206211B681D
:106590008DF80410ADF806200DEB02009847E9E7EE
:1065A00000700240400B00205D0A0020CC0A002051
:1065B000600C002010B54FF0805382B0D3F830311A
:1065C000082B03D1164B0022C3F81C2C154B164C7C
:1065D00093F85E200021032A217006D01B6D73B151
:1065E00002B0BDE81040FFF783BC10486FF4001103
:1065F000FEF7BEFE2378002BF2D002B010BD6FF480
:1066000000110A48FEF7B4FE094B062105221B685B
:106610008DF80410ADF8062001A89847EAE700BFFE
:1066200000700240400B00205D0A0020CC0A0020D0
:10663000600C002010B54FF0805382B0D3F8303199
:10664000082B03D1154B0022C3F81C2C144B154CFE
:1066500093F86E200021032A217006D01B6E73B1BF
:1066600002B0BDE81040FFF743BC0F486FF4800153
:10667000FEF77EFE2378002BF2D002B010BD6FF43F
:1066800080010948FEF774FE084A062312688DF857
:106690000430ADF8063001A89047EBE700700240E7
:1066A000400B00205D0A0020CC0A0020600C002076
:1066B00010B54FF0805382B0D3F83031082B03D19E
:1066C000164B0022C3F81C2C154B164C93F87E2059
:1066D0000021032A217006D01B6F73B102B0BDE800
:1066E0001040FFF705BC10486FF40001FEF740FEB4
:1066F0002378002BF2D002B010BD6FF400010A48DD
:10670000FEF736FE094B062107221B688DF80410A0
:10671000ADF8062001A89847EAE700BF00700240E4
:10672000400B00205D0A0020CC0A0020600C0020F5
:1067300010B54FF0805382B0D3F83031082B03D11D
:10674000164B0022C3F81C2C154B164C93F82E2028
:106750000021032A217006D01B6A73B102B0BDE884
:106760001040FFF7C5BB10486FF48021FEF700FE14
:106770002378002BF2D002B010BD6FF480210A48BC
:10678000FEF7F6FD094B062102221B688DF8041066
:10679000ADF8062001A89847EAE700BF0070024064
:1067A000400B00205D0A0020CC0A0020600C002075
:1067B0002DE9F04F524BD3F86C44C3F86C4483B0CE
:1067C000BFF36F8FBFF34F8FDFF84C81FCB14D4D9E
:1067D0004D4E4E4FDFF8449194FAA4F22968FAB175
:1067E000B2FA82F0012303FA00FB0F28024624EAE2
:1067F0000B0424DDD9F80030A0F110024BEA0101AE
:106800001BEA030F2960D2B20BD0002CE4D198F818
:106810000030002B71D103B0BDE8F04FFFF768BB2B
:106820001022062001218DF8040033688DF806201F
:106830008DF8071001A89847002CCDD1E7E700F0AC
:106840000F004BEA010137F81030296003F1804353
:1068500003F51C3342F0800A19680246E9B10021B1
:106860001960BFF36F8FBFF34F8F4FF08053BAF1B2
:10687000800FD3F8303129D0082B04BF204BC3F848
:106880001C1C234B002188F8001003EB00110001B1
:10689000897B032913D01B588BB1D9F800301BEA30
:1068A0000303B2D106228DF804208DF806A03268C9
:1068B0008DF8073001A89047002C8DD1A7E7012162
:1068C0009140C9434846FEF753FDE6E7082B04BF55
:1068D0000B4BC3F81C1C0F4B002288F8002093F8C8
:1068E0009E20032A03D0D3F89030002BD5D16FF02F
:1068F00001014846FEF73CFDCFE703B0BDE8F08F4D
:10690000007002403C0B0020600C0020708D0100E4
:10691000D00B0020400B00205D0A0020CC0A002094
:106920002DE9F04F5F4CDFF884912368DFF8888110
:10693000D9F8002098F80060DFF880A1DB439BB213
:1069400013433206DAF8805485B006F00F0B1CD4DE
:106950000BF11002012797403B423DD1524F03AE4D
:1069600005F080056FF00111504888F80050FEF7DF
:10697000FFFC23683A68052143F001030391304688
:106980002360904705B0BDE8F08F012707FA0BF7A9
:106990003B42E3D00020FEF71BF9330712D4802ED0
:1069A0006ED00BF2DA335B00CAF80038DAF804383C
:1069B000DAF80428DBB243F002031343CAF80438C0
:1069C000DAF804382368D9F8002062EA0301394272
:1069D0001FD1354F03AE18E00020FEF7F9F8D9F8C3
:1069E00000303348FA439F434FEA0B1C00EB0B1176
:1069F0002BD11340C9F80030236840F80C701340C5
:106A000023600323284F8B7303AE0020FEF7E8F8C2
:106A1000A6E722EA07023B43C9F8002023604FEAB9
:106A20000B12244B204F8DF80E600021995003EB80
:106A30000B1303229A7303AE06238DF80C308DF8E6
:106A40000F203B6830469847DFE70020CDE9002162
:106A5000FEF7BEF82368009A0199134016F0080665
:106A6000236007D10BF5947B4AF82B60BFF36F8F3F
:106A7000BFF34F8F00200091FEF7B2F80099C0E7F6
:106A800040F2B473CAF80038DAF80438DAF80428A7
:106A9000DBB243F004031343CAF80438DAF80438CD
:106AA00090E700BF3C0B0020600C0020CC0A0020C7
:106AB000400B0020D00B0020640C0020007002402E
:106AC000F0B5044683B00020FEF782F804F00F050D
:106AD00022064FEA05111CD44048DFF814C105F125
